:400000000010002011000000C9060000C906000010B500F079FBC04670B5134C23688022D20213432360182000F0F2FB22680F4B134023600E4A0F4B1A6010220E4B1A6054
:40004000802212060D4B1A60002525600C4A0D4B1A600D49092000F0A7FB092000F098FB0A4B1D6070BDC04600010B40FFFFFBFF0600008004010B403002024008010B407E
:400080000100008000000240210A00000C020B4010B572B601222D4B1A7000240FE02C486200131959000B00411889881A5AC31858880004104300F001FB0134E4B2012C9A
:4000C000EDD923490C3123484C3000F0DDFAC0229202214B1A60EE221202204B1A6099231B041F4A1360C02189041E4A11601E4A13601E4A136005221D4B1A6001321D4B26
:400100001A601D490B783632934314221343DBB20B701A4A117816230B43DBB213709422174B1A60174A184B1A604022174B1A6080221203164B1A605122164B1A60164AB8
:40014000164B1A60FFF768FF10BDC0461C700F4048160000C8170000000001400C00014000500F4008500F4020500F4030500F402000004000800F4001700F4000700F404C
:40018000000004408061400008000440000204400802044000030440822D08000803044010B5064C2378002B07D1054B002B02D0044800E000BF0123237010BD48010020D3
:4001C00000000000CC130000084B10B5002B03D00749084800E000BF07480368002B00D110BD064B002BFBD09847F9E7000000004C010020CC130000C00000200000000016
:4002000010B500F0CFFF072100F05AFF06291FD88900104B5B589F46482000F01FFD18E0142000F01BFD14E0012000F017FD10E05E2000F013FD0CE01B2000F00FFD08E0EE
:400240005C2000F00BFD04E0572000F007FD00E0002010BDD013000070B5CA4CA54404000E00C94D3C22290087A800F05BFF29003C313C2278A800F055FF290078313C2237
:4002800069A800F04FFFC14D290034313C225AA800F048FF290070313C224BA800F042FFBB4D29002C313C223CA800F03BFF290068313C222DA800F035FFB64D29002431DC
:4002C0003C221EA800F02EFF290060313C220FA800F028FF3C22B0491C31684600F022FF002E18D024E0AB0087AA9B58012B08D1572000F0B3FC02002100280000F0CAFC6F
:4003000007E0182000F0AAFC02002100280000F0C1FC013500E000250E2DE4DD00F090FC0028FBD0012000F04BFC0A2000F04EFA012E25D117E0AB0078AA9B58012B08D1CF
:40034000572000F08BFC02002100280000F0A2FC07E0182000F082FC02002100280000F099FC013500E000250E2DE4DD00F068FC0028FBD0012000F023FC0A2000F026FA71
:40038000022E25D117E0AB0069AA9B58012B08D1572000F063FC02002100280000F07AFC07E0182000F05AFC02002100280000F071FC013500E000250E2DE4DD00F040FC83
:4003C0000028FBD0012000F0FBFB0A2000F0FEF9032E25D117E0AB005AAA9B58012B08D1572000F03BFC02002100280000F052FC07E0182000F032FC02002100280000F08E
:4004000049FC013500E000250E2DE4DD00F018FC0028FBD0012000F0D3FB0A2000F0D6F9042E25D117E0AB004BAA9B58012B08D1572000F013FC02002100280000F02AFCF3
:4004400007E0182000F00AFC02002100280000F021FC013500E000250E2DE4DD00F0F0FB0028FBD0012000F0ABFB0A2000F0AEF9052E25D117E0AB003CAA9B58012B08D1E9
:40048000572000F0EBFB02002100280000F002FC07E0182000F0E2FB02002100280000F0F9FB013500E000250E2DE4DD00F0C8FB0028FBD0012000F083FB0A2000F086F996
:4004C000062E25D117E0AB002DAA9B58012B08D1572000F0C3FB02002100280000F0DAFB07E0182000F0BAFB02002100280000F0D1FB013500E000250E2DE4DD00F0A0FB9F
:400500000028FBD0012000F05BFB0A2000F05EF9072E25D117E0AB001EAA9B58012B08D1572000F09BFB02002100280000F0B2FB07E0182000F092FB02002100280000F0A7
:40054000A9FB013500E000250E2DE4DD00F078FB0028FBD0012000F033FB0A2000F036F9082E32D124E0AB000FAA9B58012B15D1572000F073FB02002100280000F08AFB87
:4005800014E0C046A8FDFFFFEC1300006C140000EC1400006C150000EC150000182000F05DFB02002100280000F074FB013500E000250E2DD7DD00F043FB0028FBD0012007
:4005C00000F0FEFA0A2000F001F9092E25D117E0AB006A469B58012B08D1572000F03EFB02002100280000F055FB07E0182000F035FB02002100280000F04CFB013500E086
:4006000000250E2DE4DD00F01BFB0028FBD0012000F0D6FA0A2000F0D9F896239B009D4470BDC04610B562B600F082FB002000F043FB002000F0F2FD00F086FD002408E056
:40064000182000F00BFB02000021200000F022FB01340E2CF4DD00F0F3FA0028FBD0012000F0AEFA0A2000F0B1F8002400E0002421000020FFF7F0FD0134FA20800000F065
:40068000A5F80A2CF4D1F2E7F0B50025002711E0BB00C658F3B2FF22964308E06A008A181478A419527822700135013BDBB2002BF4D10137072FEBD9F0BDC04610B50A0033
:4006C000002100F038FD10BD10B500F0FFFC03680C2B00D1FEE7FEE710B50300084A1068C318084A9A1A802A02DC054A136005E000F0ECFC0C2303600120404210BDC04678
:40070000C4000020F802002070B50F4E0F4D13E029686B68AC68002202E001C901C30432A242FAD1E868002202E0002102C304328242FAD11035013E002EE9D100F0CCFCD8
:40074000FFF770FFFEE7C046010000004C1D000010B500230AE0032B03D89A000949505800E009489900094A885001332F2BF2D9FFF78EFC8022D205116801230B431360AB
:4007800010BDC04600000000C9060000000000201F2318401E3B8340014A13607047C04600E100E001BE704770B504000D001F2802D90020FFF7F6FF1034A40080239B0581
:4007C0009C4664442068256070BDC04610B5040006E0084B586800F07BFB074B9C46644480231B029C42F4D8024B9868604300F06FFB10BDC80000200080FFFF10B5034B31
:400800001B7B584300F064FB10BDC046C8000020F0B557464E46C0B483B0040000F062FB0190E71E2D2F74D83F4B1B78DBB29C4208D83E4B1B78DBB29A463D4B1B78DBB2D8
:40084000994631E03B4B1B78DBB29C4208D83A4B1B78DBB29A46394B1B78DBB2994623E0374B1B78DBB29C4208D8364B1B78DBB29A46354B1B78DBB2994615E0334B1B78B3
:40088000DBB29C4208D8324B1B78DBB29A46314B1B78DBB2994607E02F4B1B78DBB29A462E4B1B78DBB299462D4BDE5D2F2E09D92A2C07D919222B4B1A60052000F008FBB1
:4008C000192503E0274B1D683F231D40B54206D9234BDA5D234B1A60052000F0F9FA1F4B9C4664442378DBB21F4A13601F4B52461A601F4B4A461A600520FFF77FFFB5423E
:400900000AD2174BDA5D174B1A60052000F0E0FA02E00020FFF746FF019800F0E7FA03B00CBC91469A46F0BDC0F1FF0FC1F1FF0FC2F1FF0FC3F1FF0FC4F1FF0FC5F1FF0F68
:40094000C6F1FF0FC7F1FF0FC8F1FF0FC9F1FF0FCAF1FF0FCBF1FF0FCCF1FF0FCDF1FF0F341800002CFF0B4028FF0B401CFF0B4020FF0B40034B1868C0231B02184000D039
:400980000120704700010B4010B500F0ABFA044A1368C02109020B43136000F0A7FA10BD00010B4010B500F09DFA08490A68084B1A408024E40122430A600A68134080221E
:4009C000120213430B6000F091FA10BD00010B40FF3FFFFF70B5050000F084FA0400FFF7C9FF002803D0FFF7DDFF012100E0002108482840084A1568084B2B4018431060F8
:400A00001368012901D1FFF7BFFF200000F06EFA70BDC0460404040010020B40FBFBFBFF10B5244B1B685B0715D5234B1B685B070ED5224BD969042001401F4C22688A4378
:400A40002260DA698243DA611B69002B00D098470420FFF7BFFF174B1B685B0518D5164B1B685B0510D5154BD9698022D2001140114802688A430260D969114A0A40DA61A5
:400A80005B69002B00D098478020C000FFF7A2FF084B1B685B030CD5074B1B685B0304D5064B9B69002B00D098478020C002FFF791FF10BD10020B40DC00002064010020BE
:400AC000FFFBFFFF70B514490A6893009B181A01D31A4A689B189B0010481B5810480068C340104800680340FF25280018400E4C265C0E4806701E0A2E40A65D06701B0CA9
:400B00008B602B40E35C037001324A604A2A02D91122074B1A7070BD84010020AC010020DC020020D80200206418000042000F4072000F4030B52122184B1A70184A13681B
:400B400001331360002B25D1DBB2164A1370144A96235B0011684B4313495B5813490968CB40134909680B40FF24210019401148455C11490D701D0A2540455D0D701B0C85
:400B8000D3602340C35C0B70012353601922034B1A7002E00122094B1A6030BD72000F408401002070000F40AC010020DC020020D80200206418000042000F40E002002062
:400BC00030B5002804D00023144A1360144A1370124D96235B002A685343124A9B58124A1268D340114A12681340FF2002001A400F498C5C0F4A14701C0A04400C5D147055
:400C00001B0C0340CB5C137001236B6019220A4B1A700022094B1A6030BDC0468401002070000F40AC010020DC020020D80200206418000042000F4072000F40E0020020BB
:400C4000044B1868002803D00022034B1A7001207047C046E002002072000F408000014BC05870476419000010B500240DE0A3001B191A01D31A5B189B00054A98500131CB
:400C800000E000214A29F2D90134002CF9D010BDAC01002000280BDB002909DB0E2807DC032905DC0B01591A40188000014BC2507047C046AC01002002280FD002D80128A5
:400CC00005D020E0032810D0042815D01BE0124A124B1A600122124B1A601BE0114A0F4B1A6002220E4B1A6014E00F4A0B4B1A6003220B4B1A600DE00C4A084B1A60042272
:400D0000074B1A6006E001225242044B1A600022034B1A607047C0467F7F7F7FD8020020DC0200203F3F3F3F1F1F1F1F0F0F0F0F10B50322184B1A700B32184B1A70023AF5
:400D4000174B1A70053A174B1A70174C012323701820FFF783FFFFF787FF00232370002000F02CF80020FFF7A7FF104B1B7F002B0ED101220D4B1A770D4800F067F80D486C
:400D800000F096F8012000F045F8002000F072F80122094B1A6010BD91000F4041000F4021000F4031000F4072000F4084010020350B0000C50A0000E002002000280CD153
:400DC0000C4A0D4B1A6005220C4B1A6002320C4B1A6019320B4B1A600BE0064A064B1A600522064B1A600232054B1A601932054B1A607047441B0000EC020020E40200207E
:400E0000F0020020E8020020014B18647047C0460000002010B5040000F064F8044A1368C0218B43A4011C43146000F05FF810BD00E400E00122014B1A60704700E100E0B3
:400E40000122014B1A60704780E100E010B50400FFF7F6FF2000FFF7D7FF0320FFF7DAFFFFF7E8FF10BDC046014B98647047C0460000002010B5040000F034F8044A11687E
:400E8000044B0B40A4051C43146000F02FF810BD00E400E0FFFF3FFF0422014B1A60704700E100E00422014B1A60704780E100E010B50400FFF7F6FF2000FFF7D5FF03202F
:400EC000FFF7D8FFFFF7E8FF10BDC046000000000230800804D0C0460138FDD1C046C046C0467047EFF3108072B6704780F310887047C04603460B437FD4002243088B42D4
:400F000074D303098B425FD3030A8B4244D3030B8B4228D3030C8B420DD3FF22090212BA030C8B4202D31212090265D0030B8B4219D300E0090AC30B8B4201D3CB03C01AFE
:400F40005241830B8B4201D38B03C01A5241430B8B4201D34B03C01A5241030B8B4201D30B03C01A5241C30A8B4201D3CB02C01A5241830A8B4201D38B02C01A5241430AC3
:400F80008B4201D34B02C01A5241030A8B4201D30B02C01A5241CDD2C3098B4201D3CB01C01A524183098B4201D38B01C01A524143098B4201D34B01C01A524103098B42C4
:400FC00001D30B01C01A5241C3088B4201D3CB00C01A524183088B4201D38B00C01A524143088B4201D34B00C01A5241411A00D201465241104670475DE0CA0F00D04942B3
:40100000031000D34042534000229C4603098B422DD3030A8B4212D3FC22890112BA030A8B420CD3890192118B4208D3890192118B4204D389013AD0921100E08909C309D1
:401040008B4201D3CB01C01A524183098B4201D38B01C01A524143098B4201D34B01C01A524103098B4201D30B01C01A5241C3088B4201D3CB00C01A524183088B4201D3D4
:401080008B00C01A5241D9D243088B4201D34B00C01A5241411A00D20146634652415B10104601D34042002B00D54942704763465B1000D3404201B5002000F005F802BDF5
:4010C0000029F8D016E770477047C046014B18687047C046400100200E4B70B500251E000D4CE41AA410A54204D0AB00F35898470135F8E700F018FE084B00251E00084C43
:40110000E41AA410A54204D0AB00F35898470135F8E770BD341D0000341D0000341D00003C1D0000002310B59A4203D0CC5CC4540133F9E710BD03008218934202D019705A
:401140000133FAE770470000104B70B51C680500A36B002B15D1182000F086F80C4BA06303800C4B012243800B4B83800B4BC3800B4B038105234381063383810023026140
:4011800043610022A36B1D615A6170BD400100200E330000CDABFFFF341200006DE6FFFFECDEFFFF154B10B51C68A36B002B15D1182000F059F8124BA0630380114B0122DB
:4011C0004380114B8380114BC380114B03810523438106338381002302614361A46B0D4A206961690C4B00F0BDF80122002380185941206161614800400810BD40010020CD
:401200000E330000CDABFFFF341200006DE6FFFFECDEFFFF2D7F954C2DF4515813B5084B040000226946186800F00CF8002802DA01235B4200930098002C00D0206016BD9E
:4012400040010020002370B5064C050008001100236000F0B3F8431C03D12368002B00D02B6070BDF402002010B5034B0100186800F004F810BDC04640010020032370B5B1
:40128000CD1C9D43083506000C2D01D20C2501E0002D01DBA94202D90C23336048E0300000F05EF8234B1C681A002100002913D00B685B1B0DD40B2B02D90B60CC181EE074
:4012C0008C4202D1636813601AE04B6863600C0016E00C004968E9E7174C2368002B03D1300000F02BF820602900300000F026F8431C18D00323C41C9C43A0420DD1256088
:40130000300000F02EF8200007220B30231D9043C31A0ED05A42E2500BE0211A300000F00DF8431CEBD10C233000336000F019F8002070BDA8010020A4010020002370B5CB
:40134000064C050008002360FFF7C6F9431C03D12368002B00D02B6070BDC046F402002070477047F0B54F464646C0B41604360C9946330005042C0C070C150C63437E4357
:401380006F4365431C0CAD1964199C46A64203D980235B02984647446346250CEF191D044B464A4343432D0C240464199918C91920000CBC90469946F0BDC0465822012056
:4013C000014B40421A607047F40200200000000018020000200200002802000030020000380200004002000048020000010000000100000001000000010000000100000075
:4014000001000000000000000000000000000000010000000100000001000000010000000100000001000000010000000000000000000000000000000100000001000000A2
:401440000100000001000000010000000100000001000000000000000000000000000000000000000100000001000000010000000000000001000000010000000000000062
:401480000100000000000000010000000100000000000000010000000100000001000000010000000000000001000000000000000100000001000000000000000100000021
:4014C00000000000010000000100000001000000010000000100000001000000000000000000000001000000010000000100000000000000000000000100000000000000E2
:40150000000000000100000001000000010000000100000001000000010000000000000001000000010000000100000001000000000000000100000000000000010000009F
:40154000010000000100000001000000000000000100000001000000010000000100000001000000010000000100000000000000010000000000000001000000010000005E
:401580000100000001000000000000000100000000000000000000000000000001000000010000000000000000000000000000000000000001000000010000000100000023
:4015C00001000000010000000100000001000000010000000100000001000000010000000100000000000000010000000000000001000000010000000100000001000000DD
:40160000010000000100000001000000000000000100000001000000010000000100000000000000010000000000000001000000010000000100000001000000010000009D
:40164000010000003C00000000300F40000400400F400004011811182114310C06012001240128012C0130013E0158045B045F018001844B850486208B018E109301950D56
:401680009608971098049B029E88A201A508A648A904AB08AC90AD12AE6EAF0DB018B220B31CB407B503B6C0B820BA82BB20C026C501C620C705C819C9FFCAFFCBFFCDA0CD
:4016C000D804D904DA04DF01E040E140E2C0E4C0E6C003100440050406800D200E2210AA1540162017011B021C601D201E02261027102D402E082F09350436113F2845201C
:401700004F285628571068AA8702C0B4C2E0C4BFCA70CCE0CE60D020D2200064021A032006090708082D0AD20B200D010E09133015071609170819021A801D041E09202126
:401740002310271028102A022B072E212F0F30073120323834C0350F371038023F414032460C47EB483449FF4AFF4BFF580459045A045B045F0162C0644065010450050108
:4017800006200C400D200E221480154016881C101D251F012406250227082C802E242F0134403506361037013C643E023F10452047085401568057085CA0650267106C8037
:4017C0006D406F01760A842186849040940297029A209D049E809F01A010A211A502A708A801A902C0F0C2E0C4D0CAF0CCF0CEF0D060D630D8C067806C2071108740D8807D
:40180000DA80DC20E210A820A910EA80EE2001011001000004000F403B300F4024310F4031320F403D330F4008400F4004410F4002600F40030405060708090A0B0C0E0FEE
:40184000101112131415161718191B1C1D1E1F2021222325262728292A2B2E2F303132333435000000000000000000000000000000000000000000000000000000000000E0
:401880000101010101010101010101010102020202020202020303030303030304040404040505050506060606070707070808080909090A0A0A0B0B0B0C0C0D0D0D0E0ECD
:4018C0000F0F101011111212131314141515161617181819191A1B1B1C1D1D1E1F202021222323242526272728292A2B2C2D2E2F303132323334363738393A3B3C3D3E3F0D
:4019000040424344454648494A4B4D4E4F515253555657595A5C5D5F606263656668696B6D6E7072737577787A7C7E7F81838587898A8C8E90929496989A9C9EA0A2A4A70B
:40194000A9ABADAFB1B4B6B8BABDBFC1C4C6C8CBCDD0D2D5D7DADCDFE1E4E7E9ECEFF1F4F7F9FCFFFFFF0000FFCC0000FF990000FF330000FF000000B30066009900990003
:401980006600B3003300CC001919B3000033990000409900006699000099990000CC990000E6660000FF000033FF000066FF000080FF000099FF0000B2FF0000CCFF00007A
:4019C000E5FF000000000000000055000000AA000000FF0055000000550055005500AA005500FF00AA000000AA005500AA00AA00AA00FF00FF000000FF005500FF00AA0011
:401A0000FF00FF0000550000005555000055AA000055FF0055550000555555005555AA005555FF00AA550000AA555500AA55AA00AA55FF00FF550000FF555500FF55AA00BB
:401A4000FF55FF0000AA000000AA550000AAAA0000AAFF0055AA000055AA550055AAAA0055AAFF00AAAA0000AAAA5500AAAAAA00AAAAFF00FFAA0000FFAA5500FFAAAA002B
:401A8000FFAAFF0000FF000000FF550000FFAA0000FFFF0055FF000055FF550055FFAA0055FFFF00AAFF0000AAFF5500AAFFAA00AAFFFF00FFFF0000FFFF5500FFFFAA009B
:401AC000FFFFFF00FF800000FF008000FF00FF008000FF000080FF0000FF8000FF00000020202000000020000000001000FF000030FF0000FFFFFFFF000000FF808080FF39
:401B0000404040FF0000FF000010F0000020E0000030D0000040C0000050B0000060A00000709000008080000090700000A0600000B0500000C0400000D0300000E02000E7
:401B400000FF0000000000000000005F00000007000700147F147F14242A7F2A12231308646236495522500005030000001C2241000041221C00082A1C2A0808083E080888
:401B800000503000000808080808006060000020100804023E5149453E00427F400042615149462141454B311814127F1027454545393C4A494930017109050336494949A5
:401BC00036064949291E003636000000563600000008142241141414141441221408000201510906324979413E7E1111117E7F494949363E414141227F4141221C7F49496E
:401C000049417F090901013E414151327F0808087F00417F41002040413F017F081422417F404040407F0204027F7F0408107F3E4141413E7F090909063E4151215E7F09F9
:401C4000192946464949493101017F01013F4040403F1F2040201F7F2018207F63140814630304780403615149454300007F4141020408102041417F000004020102044029
:401C800040404040000102040020545454787F484444383844444420384444487F3854545418087E090102081454543C7F0804047800447D40002040443D00007F10284495
:401CC00000417F40007C041804787C0804047838444444387C14141408081414187C7C080404084854545420043F4440203C4040207C1C2040201C3C4030403C4428102851
:401D0000440C5050503C4464544C44000836410000007F0000004136080008082A1C08081C2A080843000000F8B5C046F8BC08BC9E467047C901000051070000F8B5C04684
:401D4000F8BC08BC9E467047A1010000601D0000C000002088000000B00100000000000000000000F8020020010000000000E02EC05D00001800000000366E010404040009
:401D80000000000000000000000000000000000000000000000000000000000000000000241D000000000000000000000000000000000000000000000000000000000000E2
:401DC0000000000000000000000000000000000000000000000000000000000000000000E000002000000000000000000000000000000000000000000000000000000000E3
:401E000000000000000000000000000000000000000000000000000000000000000000000000000000000000000000000000000000000000000000000000000000000000A2
:401E40000000000000000000000000000000000000000000000000000000000000000000000000000000000000000000000000000000000000000000000000000000000062
:401E80000000000000000000000000000000000000000000000000000000000000000000000000000000000000000000000000000000000000000000000000000000000022
:401EC00000000000000000000000000000000000000000000000000000000000000000000000000000000000000000000000000000000000000000000000000000000000E2
:0200000490303A
:020000008E561A
:0200000490402A
:200000000000000000000000000000000000000000000000000000000000000000000000E0
:0200000490501A
:0C000000000204C81193110104D09FE914
:0200000490600A
:0100000001FE
:00000001FF