:400000000010002011000000910300009103000010B500F0DDF9C04670B5134C23688022D20213432360182000F060FA22680F4B134023600E4A0F4B1A6010220E4B1A60FB
:40004000802212060D4B1A60002525600C4A0D4B1A600D49092000F015FA092000F006FA0A4B1D6070BDC04600010B40FFFFFBFF0600008004010B403002024008010B40A4
:400080000100008000000240FD0600000C020B4010B572B601222E4B1A7000240FE02D486200131959000B00411889881A5AC31858880004104300F065F90134E4B2012C5E
:4000C000EDD924490C312448503000F041F980225200224B1A80FF3A214B1A70C0229202204B1A60EE2212021F4B1A6099231B041E4A1360802109061D4A1160C021890441
:400100001C4A11601C4A136006231C4A13601C4A13601C490B783C22934314221343DBB20B70194A117816230B43DBB213709422164B1A60164A174B1A6080221202164B1D
:400140001A60D8221201154B1A60FFF765FF10BD1C700F40EC0D00006C0F000000600F4002600F40000001400C00014000500F4004500F4008500F4030500F4020000040A2
:4001800000800F4001700F4000700F400000044080614000080004400C0004400803044010B5064C2378002B07D1054B002B02D0044800E000BF0123237010BD48010020C7
:4001C00000000000E80D0000084B10B5002B03D00749084800E000BF07480368002B00D110BD064B002BFBD09847F9E7000000004C010020E80D0000C000002000000000EA
:4002000070B506000D0000240CE02A003100200000F0ACFB00F080FB0028FBD0012000F03DFB01340E2CF0D970BDC046F0B583B00600482000F07EFB0700142000F07AFB03
:400240000400012000F076FB05005E2000F072FB00901B2000F06EFB01905C2000F06AFBB7420AD0B4420AD0B5420AD0009BB34209D0019BB34208D108E0200006E0280035
:4002800004E0009802E0019800E0380003B0F0BD70B5482000F04EFB050000241CE000210020FFF7ADFF00210120FFF7A9FF0A2000F0FAF82A000021200000F057FB2A003E
:4002C0000121200000F052FB00F026FB0028FBD0012000F0E3FA01340E2CE0DD2800FFF7A5FF05000D241CE000210020FFF788FF00210120FFF784FF0A2000F0D5F82A00E3
:400300000021200000F032FB2A000121200000F02DFB00F001FB0028FBD0012000F0BEFA013C002CE0DC2800FFF780FF0500B4E710B562B6002000F0ABFC00F07BFC00F0E6
:400340008BF800F061FB012000F022FBFFF7A0FFF0B50025002711E0BB00C658F3B2FF22964308E06A008A181478A419527822700135013BDBB2002BF4D10137072FEBD9D7
:40038000F0BDC04610B50A00002100F04BFC10BD10B500F01BFC03680C2B00D1FEE7FEE710B50300084A1068C318084A9A1A802A02DC054A136005E000F008FC0C23036065
:4003C0000120404210BDC046C40000208002002070B50F4E0F4D13E029686B68AC68002202E001C901C30432A242FAD1E868002202E0002102C304328242FAD11035013EBE
:40040000002EE9D100F0E8FBFFF792FFFEE7C04601000000F414000010B500230AE0032B03D89A000949505800E009489900094A885001332F2BF2D9FFF72AFE8022D20532
:40044000116801230B43136010BDC046000000009103000000000020034B1868C0B27F2290431860C0097047100004401F2318401E3B8340014A13607047C04600E100E0A5
:4004800001BE704770B504000D001F2802D90020FFF7F6FF1034A40080239B059C4664442068256070BDC04610B5040006E0084B586800F079FB074B9C46644480231B02AC
:4004C0009C42F4D8024B9868604300F06DFB10BDC80000200080FFFF10B5034B1B7B584300F062FB10BDC046C8000020F0B557464E46C0B483B0040000F060FB0190E71E29
:400500002D2F74D83F4B1B78DBB29C4208D83E4B1B78DBB29A463D4B1B78DBB2994631E03B4B1B78DBB29C4208D83A4B1B78DBB29A46394B1B78DBB2994623E0374B1B7806
:40054000DBB29C4208D8364B1B78DBB29A46354B1B78DBB2994615E0334B1B78DBB29C4208D8324B1B78DBB29A46314B1B78DBB2994607E02F4B1B78DBB29A462E4B1B787A
:40058000DBB299462D4BDE5D2F2E09D92A2C07D919222B4B1A60052000F006FB192503E0274B1D683F231D40B54206D9234BDA5D234B1A60052000F0F7FA1F4B9C46644432
:4005C0002378DBB21F4A13601F4B52461A601F4B4A461A600520FFF77FFFB5420AD2174BDA5D174B1A60052000F0DEFA02E00020FFF746FF019800F0E5FA03B00CBC914642
:400600009A46F0BDC0F1FF0FC1F1FF0FC2F1FF0FC3F1FF0FC4F1FF0FC5F1FF0FC6F1FF0FC7F1FF0FC8F1FF0FC9F1FF0FCAF1FF0FCBF1FF0FCCF1FF0FCDF1FF0FDC0F000075
:400640002CFF0B4028FF0B401CFF0B4020FF0B40034B1868C0231B02184000D00120704700010B4010B500F0A9FA044A1368C02109020B43136000F0A5FA10BD00010B4032
:4006800010B500F09BFA08490A68084B1A408024E40122430A600A6813408022120213430B6000F08FFA10BD00010B40FF3FFFFF70B5050000F082FA0400FFF7C9FF00289E
:4006C00003D0FFF7DDFF012100E0002108482840084A1568084B2B40184310601368012901D1FFF7BFFF200000F06CFA70BDC0460404040010020B40FBFBFBFF10B5244BC1
:400700001B685B0715D5234B1B685B070ED5224BD969042001401F4C22688A432260DA698243DA611B69002B00D098470420FFF7BFFF174B1B685B0518D5164B1B685B056D
:4007400010D5154BD9698022D2001140114802688A430260D969114A0A40DA615B69002B00D098478020C000FFF7A2FF084B1B685B030CD5074B1B685B0304D5064B9B690E
:40078000002B00D098478020C002FFF791FF10BD10020B40DC00002064010020FFFBFFFF70B514490A6853009B181A01D31A4A689B189B0010481B5810480068C3401048EC
:4007C00000680340FF25280018400E4C265C0E4806701E0A2E40A65D06701B0C8B602B40E35C037001324A602C2A02D91122074B1A7070BD84010020AC0100206402002082
:40080000600200200C10000042000F4072000F4030B52122184B1A70184A136801331360002B24D1DBB2164A1370144AB42311684B4314495B5814490968CB4013490968AD
:400840000B40FF24210019401148455C11490D701D0A2540455D0D701B0CD3602340C35C0B70012353601922034B1A7002E00122094B1A6030BDC04672000F4084010020A7
:4008800070000F40AC01002064020020600200200C10000042000F406802002030B5002804D00023134A1360134A1370114DB4232A685343114A9B58114A1268D340114ACB
:4008C00012681340FF2002001A400F498C5C0F4A14701C0A04400C5D14701B0C0340CB5C137001236B601922094B1A700022094B1A6030BD8401002070000F40AC01002012
:4009000064020020600200200C10000042000F4072000F4068020020044B1868002803D00022034B1A7001207047C0466802002072000F408000014BC05870470C11000012
:4009400010B500240DE063001B191A01D31A5B189B00054A9850013100E000212C29F2D90134002CF9D010BDAC01002000280BDB002909DB0E2807DC012905DC0B01591AE8
:4009800040188000014BC2507047C046AC01002002280FD002D8012805D020E0032810D0042815D01BE0124A124B1A600122124B1A601BE0114A0F4B1A6002220E4B1A6031
:4009C00014E00F4A0B4B1A6003220B4B1A600DE00C4A084B1A600422074B1A6006E001225242044B1A600022034B1A607047C0467F7F7F7F60020020640200203F3F3F3FD6
:400A00001F1F1F1F0F0F0F0F10B50322184B1A700B32184B1A70023A174B1A70053A174B1A70174C012323701820FFF783FFFFF787FF00232370002000F02CF80020FFF764
:400A4000A7FF104B1B7F002B0ED101220D4B1A770D4800F069F80D4800F098F8012000F045F8002000F074F80122094B1A6010BD91000F4041000F4021000F4031000F4062
:400A800072000F408401002011080000A10700006802002000280CD10C4A0D4B1A6005220C4B1A6002320C4B1A6019320B4B1A600BE0064A064B1A600522064B1A60023214
:400AC000054B1A601932054B1A607047EC120000740200206C0200207802002070020020014B58647047C0460000002010B5040000F064F8044A1168044B0B40A4031C43B1
:400B0000146000F05FF810BD00E400E0FF3FFFFF0222014B1A60704700E100E00222014B1A60704780E100E010B50400FFF7F6FF2000FFF7D5FF0320FFF7D8FFFFF7E8FF7E
:400B400010BDC046014B98647047C0460000002010B5040000F032F8044A1168044B0B40A4051C43146000F02DF810BD00E400E0FFFF3FFF0422014B1A60704700E100E077
:400B80000422014B1A60704780E100E010B50400FFF7F6FF2000FFF7D5FF0320FFF7D8FFFFF7E8FF10BDC0460230800804D0C0460138FDD1C046C046C0467047EFF310803D
:400BC00072B6704780F310887047C046014B18687047C046400100200E4B70B500251E000D4CE41AA410A54204D0AB00F35898470135F8E700F06CFC084B00251E00084CB1
:400C0000E41AA410A54204D0AB00F35898470135F8E770BDDC140000DC140000DC140000E414000003008218934202D019700133FAE77047104B70B51C680500A36B002B8D
:400C400015D1182000F04AF80C4BA06303800C4B012243800B4B83800B4BC3800B4B038105234381063383810023026143610022A36B1D615A6170BD400100200E330000B3
:400C8000CDABFFFF341200006DE6FFFFECDEFFFF13B5084B040000226946186800F00CF8002802DA01235B4200930098002C00D0206016BD40010020002370B5064C0500BC
:400CC00008001100236000F087F8431C03D12368002B00D02B6070BD7C02002010B5034B0100186800F004F810BDC04640010020032370B5CD1C9D43083506000C2D01D2C3
:400D00000C2501E0002D01DBA94202D90C23336048E0300000F05EF8234B1C681A002100002913D00B685B1B0DD40B2B02D90B60CC181EE08C4202D1636813601AE04B6885
:400D400063600C0016E00C004968E9E7174C2368002B03D1300000F02BF820602900300000F026F8431C18D00323C41C9C43A0420DD12560300000F02EF8200007220B30CF
:400D8000231D9043C31A0ED05A42E2500BE0211A300000F00DF8431CEBD10C233000336000F019F8002070BDA8010020A4010020002370B5064C050008002360FFF7F0FA59
:400DC000431C03D12368002B00D02B6070BDC0467C0200207047704758220120014B40421A6070477C0200200000000000300F40000400400F400004011811182114310C6E
:400E000000010601240128012C0130013E0158045B045F018108820884108504862E880B8A208B018E40900195129610970D98049B02A241A50DA608A710A904AA08AB0862
:400E4000AE40AF01B020B218B31CB407B503B640B820BA08BB20BE40C026C501C620C750C829C9FFCAFFCBFFCDA0D804D904DA04DF01E040E140E2C0E4C0E6C003500440F2
:400E8000051406880D200E200F80102A162217211B021C401D221E21262027142E882F093504362037203F2A45204F2856205711682A6B408702C0FCC270C4F7CA70CC60B3
:400EC000CEE0D020D220028903400649072008A409010A5A0D040E21134015101609170F186D19021A121F08202125072609273828102A022B072F4030C03207334034380C
:400F00003530370F38083A023F044053460C47EB483449FF4AFF4BFF580459045A045B045F0162C06440650104100501062007010E280F101490168817041C101D151E4819
:400F40001F212406268027282EA02F2034103506368037013C043E413F1047084C015401568057485CA0650266046E016F01760A8421872097029A249B049D149E029F01B5
:400F8000A210A748A902AA04AE01C0F0C260C470CA70CCF0CEF0D040D210D630D8C067806B806F028740D880DA80DC20E21087809F80AF02E240EA101001110104000F402B
:400FC0003E300F4025310F4031320F403B330F4008400F4005410F4002600F40030405060708090A0B0C0E0F101112131415161718191B1C1D1E1F20212223252627282934
:401000002A2B2E2F303132333435000000000000000000000000000000000000000000000000000000000000010101010101010101010101010202020202020202030303A9
:401040000303030304040404040505050506060606070707070808080909090A0A0A0B0B0B0C0C0D0D0D0E0E0F0F101011111212131314141515161617181819191A1B1B4A
:401080001C1D1D1E1F202021222323242526272728292A2B2C2D2E2F303132323334363738393A3B3C3D3E3F40424344454648494A4B4D4E4F515253555657595A5C5D5FDF
:4010C000606263656668696B6D6E7072737577787A7C7E7F81838587898A8C8E90929496989A9C9EA0A2A4A7A9ABADAFB1B4B6B8BABDBFC1C4C6C8CBCDD0D2D5D7DADCDF74
:40110000E1E4E7E9ECEFF1F4F7F9FCFFFFFF0000FFCC0000FF990000FF330000FF000000B3006600990099006600B3003300CC001919B300003399000040990000669900F1
:401140000099990000CC990000E6660000FF000033FF000066FF000080FF000099FF0000B2FF0000CCFF0000E5FF000000000000000055000000AA000000FF00550000002C
:40118000550055005500AA005500FF00AA000000AA005500AA00AA00AA00FF00FF000000FF005500FF00AA00FF00FF0000550000005555000055AA000055FF005555000096
:4011C000555555005555AA005555FF00AA550000AA555500AA55AA00AA55FF00FF550000FF555500FF55AA00FF55FF0000AA000000AA550000AAAA0000AAFF0055AA000006
:4012000055AA550055AAAA0055AAFF00AAAA0000AAAA5500AAAAAA00AAAAFF00FFAA0000FFAA5500FFAAAA00FFAAFF0000FF000000FF550000FFAA0000FFFF0055FF000075
:4012400055FF550055FFAA0055FFFF00AAFF0000AAFF5500AAFFAA00AAFFFF00FFFF0000FFFF5500FFFFAA00FFFFFF00FF800000FF008000FF00FF008000FF000080FF00E2
:4012800000FF8000FF00000020202000000020000000001000FF000030FF0000FFFFFFFF000000FF808080FF404040FF0000FF000010F0000020E0000030D0000040C000BA
:4012C0000050B0000060A00000709000008080000090700000A0600000B0500000C0400000D0300000E0200000FF0000000000000000005F00000007000700147F147F1448
:40130000242A7F2A12231308646236495522500005030000001C2241000041221C00082A1C2A0808083E080800503000000808080808006060000020100804023E514945B3
:401340003E00427F400042615149462141454B311814127F1027454545393C4A49493001710905033649494936064949291E003636000000563600000008142241141414E8
:40138000141441221408000201510906324979413E7E1111117E7F494949363E414141227F4141221C7F494949417F090901013E414151327F0808087F00417F41002040A7
:4013C000413F017F081422417F404040407F0204027F7F0408107F3E4141413E7F090909063E4151215E7F09192946464949493101017F01013F4040403F1F2040201F7F41
:401400002018207F63140814630304780403615149454300007F4141020408102041417F000004020102044040404040000102040020545454787F48444438384444442003
:40144000384444487F3854545418087E090102081454543C7F0804047800447D40002040443D00007F10284400417F40007C041804787C0804047838444444387C14141417
:4014800008081414187C7C080404084854545420043F4440203C4040207C1C2040201C3C4030403C44281028440C5050503C4464544C44000836410000007F000000413628
:4014C000080008082A1C08081C2A080843000000F8B5C046F8BC08BC9E467047C901000019040000F8B5C046F8BC08BC9E467047A101000008150000C0000020880000004B
:4015000038010000000000000000000080020020010000000000E02EC05D00001800000000366E0104040400000000000000000000000000000000000000000000000000DB
:401540000000000000000000CC140000000000000000000000000000000000000000000000000000000000000000000000000000000000000000000000000000000000008B
:401580000000000000000000E0000020000000000000000000000000000000000000000000000000000000000000000000000000000000000000000000000000000000002B
:4015C00000000000000000000000000000000000000000000000000000000000000000000000000000000000000000000000000000000000000000000000000000000000EB
:4016000000000000000000000000000000000000000000000000000000000000000000000000000000000000000000000000000000000000000000000000000000000000AA
:40164000000000000000000000000000000000000000000000000000000000000000000000000000000000000000000000000000000000000000000000000000000000006A
:40168000000000000000000000000000000000000000000000000000000000000000000000000000000000000000000000000000000000000000000000000000000000002A
:0200000490303A
:0200000073503B
:0200000490402A
:200000000000000000000000000000000000000000000000000000000000000000000000E0
:0200000490501A
:0C000000000204C81193110104CE84E337
:0200000490600A
:0100000001FE
:00000001FF