:4000000000100020110000006D0200006D02000010B500F04BF9C04670B5134C23688022D20213432360182000F0B8F922680F4B134023600E4A0F4B1A6010220E4B1A6080
:40004000802212060D4B1A60002525600C4A0D4B1A600D49092000F085F9092000F076F90A4B1D6070BDC04600010B40FFFFFBFF0600008004010B403002024008010B40C6
:400080000100008000000240AD0500000C020B4010B572B601222D4B1A7000240FE02C486200131959000B00411889881A5AC31858880004104300F0D3F80134E4B2012C44
:4000C000EDD923490C3123484C3000F0AFF8C0229202214B1A60EE221202204B1A6099231B041F4A1360C02189041E4A11601E4A13601E4A136005221D4B1A6001321D4B56
:400100001A601D490B783632934314221343DBB20B701A4A117816230B43DBB213709422174B1A60174A184B1A604022174B1A6080221203164B1A605122164B1A60164AB8
:40014000164B1A60FFF768FF10BDC0461C700F40F40B0000740D0000000001400C00014000500F4008500F4020500F4030500F402000004000800F4001700F4000700F4009
:40018000000004408061400008000440000204400802044000030440822D08000803044010B5064C2378002B07D1054B002B02D0044800E000BF0123237010BD48010020D3
:4001C00000000000F00B0000084B10B5002B03D00749084800E000BF07480368002B00D110BD064B002BFBD09847F9E7000000004C010020F00B0000C000002000000000DE
:4002000010B562B600F0FEFA002000F0BFFA002000F042FC00F012FC0022034B1A6000F0BFFB00F087F8FAE7AC010020F0B50025002711E0BB00C658F3B2FF22964308E0F1
:400240006A008A181478A419527822700135013BDBB2002BF4D10137072FEBD9F0BDC04610B50A00002100F0E1FB10BD10B500F0B1FB03680C2B00D1FEE7FEE710B503000A
:40028000084A1068C318084A9A1A802A02DC054A136005E000F09EFB0C2303600120404210BDC046C40000208806002070B50F4E0F4D13E029686B68AC68002202E001C92A
:4002C00001C30432A242FAD1E868002202E0002102C304328242FAD11035013E002EE9D100F07EFBFFF78CFFFEE7C04601000000F812000010B500230AE0032B03D89A0095
:400300000949505800E009489900094A885001332F2BF2D9FFF7BCFE8022D205116801230B43136010BDC046000000006D0200000000002004490A68D2B204239A438000C5
:400340001840104308607047000004401F2318401E3B8340014A13607047C04600E100E001BE704770B504000D001F2802D90020FFF7F6FF1034A40080239B059C466444EF
:400380002068256070BDC04610B5034B1B7B584300F00EFB10BDC046C8000020F0B557464E46C0B483B0040000F00CFB0190E71E2D2F74D83F4B1B78DBB29C4208D83E4B5E
:4003C0001B78DBB29A463D4B1B78DBB2994631E03B4B1B78DBB29C4208D83A4B1B78DBB29A46394B1B78DBB2994623E0374B1B78DBB29C4208D8364B1B78DBB29A46354B95
:400400001B78DBB2994615E0334B1B78DBB29C4208D8324B1B78DBB29A46314B1B78DBB2994607E02F4B1B78DBB29A462E4B1B78DBB299462D4BDE5D2F2E09D92A2C07D973
:4004400019222B4B1A60052000F0B2FA192503E0274B1D683F231D40B54206D9234BDA5D234B1A60052000F0A3FA1F4B9C4664442378DBB21F4A13601F4B52461A601F4BC6
:400480004A461A600520FFF77FFFB5420AD2174BDA5D174B1A60052000F08AFA02E00020FFF75EFF019800F091FA03B00CBC91469A46F0BDC0F1FF0FC1F1FF0FC2F1FF0F30
:4004C000C3F1FF0FC4F1FF0FC5F1FF0FC6F1FF0FC7F1FF0FC8F1FF0FC9F1FF0FCAF1FF0FCBF1FF0FCCF1FF0FCDF1FF0FE00D00002CFF0B4028FF0B401CFF0B4020FF0B40CA
:40050000034B1868C0231B02184000D00120704700010B4010B500F055FA044A1368C02109020B43136000F051FA10BD00010B4010B500F047FA08490A68084B1A408024C9
:40054000E40122430A600A6813408022120213430B6000F03BFA10BD00010B40FF3FFFFF70B5050000F02EFA0400FFF7C9FF002803D0FFF7DDFF012100E000210848284065
:40058000084A1568084B2B40184310601368012901D1FFF7BFFF200000F018FA70BDC0460404040010020B40FBFBFBFF10B5244B1B685B0715D5234B1B685B070ED5224B64
:4005C000D969042001401F4C22688A432260DA698243DA611B69002B00D098470420FFF7BFFF174B1B685B0518D5164B1B685B0510D5154BD9698022D20011401148026812
:400600008A430260D969114A0A40DA615B69002B00D098478020C000FFF7A2FF084B1B685B030CD5074B1B685B0304D5064B9B69002B00D098478020C002FFF791FF10BDCF
:4006400010020B40DC00002064010020FFFBFFFF70B5154996235B000A6853434A689B189B0012481B5812480068C340114800680340FF25280018400F4C265C0F48067021
:400680001E0A2E40A65D06701B0C8B602B40E35C037001324A602C23FF339A4202D91122074B1A7070BDC04684010020B80100206C06002068060020100E000042000F4058
:4006C00072000F4030B52122184B1A70184A136801331360002B25D1DBB2164A1370144A9623DB0011684B4313495B5813490968CB40134909680B40FF2421001940114821
:40070000455C11490D701D0A2540455D0D701B0CD3602340C35C0B70012353601922034B1A7002E00122094B1A6030BD72000F408401002070000F40B80100206C06002005
:4007400068060020100E000042000F40700600208000014BC0587047100F000010B500240EE096235B0063439B189B0006495850013200E000222C23FF339A42F1D9013485
:40078000002CF7D010BDC046B801002002280FD002D8012805D020E0032810D0042815D01BE0124A124B1A600122124B1A601BE0114A0F4B1A6002220E4B1A6014E00F4A07
:4007C0000B4B1A6003220B4B1A600DE00C4A084B1A600422074B1A6006E001225242044B1A600022034B1A607047C0467F7F7F7F680600206C0600203F3F3F3F1F1F1F1F91
:400800000F0F0F0F10B50322184B1A700B32184B1A70023A174B1A70053A174B1A70174C012323701820FFF793FFFFF797FF00232370002000F02CF80020FFF7A7FF104BC1
:400840001B7F002B0ED101220D4B1A770D4800F067F80D4800F096F8012000F045F8002000F072F80122094B1A6010BD91000F4041000F4021000F4031000F4072000F40AA
:4008800084010020C5060000510600007006002000280CD10C4A0D4B1A6005220C4B1A6002320C4B1A6019320B4B1A600BE0064A064B1A600522064B1A600232054B1A60A0
:4008C0001932054B1A607047F01000007C060020740600208006002078060020014B18647047C0460000002010B5040000F06AF8044A1368C0218B43A4011C43146000F00C
:4009000065F810BD00E400E00122014B1A60704700E100E00122014B1A60704780E100E010B50400FFF7F6FF2000FFF7D7FF0320FFF7DAFFFFF7E8FF10BDC046014B9864FD
:400940007047C0460000002010B5040000F03AF8044A1168044B0B40A4051C43146000F035F810BD00E400E0FFFF3FFF0422014B1A60704700E100E00422014B1A607047E1
:4009800080E100E010B50400FFF7F6FF2000FFF7D5FF0320FFF7D8FFFFF7E8FF10BDC046024B18688009012318407047040204400230800804D0C0460138FDD1C046C0463E
:4009C000C0467047EFF3108072B6704780F310887047C046014B18687047C046400100200E4B70B500251E000D4CE41AA410A54204D0AB00F35898470135F8E700F06AFC70
:400A0000084B00251E00084CE41AA410A54204D0AB00F35898470135F8E770BDE0120000E0120000E0120000E812000003008218934202D019700133FAE77047104B70B55F
:400A40001C680500A36B002B15D1182000F04AF80C4BA06303800C4B012243800B4B83800B4BC3800B4B038105234381063383810023026143610022A36B1D615A6170BD95
:400A8000400100200E330000CDABFFFF341200006DE6FFFFECDEFFFF13B5084B040000226946186800F00CF8002802DA01235B4200930098002C00D0206016BD40010020BB
:400AC000002370B5064C050008001100236000F087F8431C03D12368002B00D02B6070BD8406002010B5034B0100186800F004F810BDC04640010020032370B5CD1C9D4369
:400B0000083506000C2D01D20C2501E0002D01DBA94202D90C23336048E0300000F05EF8234B1C681A002100002913D00B685B1B0DD40B2B02D90B60CC181EE08C4202D123
:400B4000636813601AE04B6863600C0016E00C004968E9E7174C2368002B03D1300000F02BF820602900300000F026F8431C18D00323C41C9C43A0420DD12560300000F090
:400B80002EF8200007220B30231D9043C31A0ED05A42E2500BE0211A300000F00DF8431CEBD10C233000336000F019F8002070BDA8010020A4010020002370B5064C05001C
:400BC00008002360FFF75AFB431C03D12368002B00D02B6070BDC046840600207047704758220120014B40421A607047840600200000000000300F40000400400F40000436
:400C0000011811182114310C06012001240128012C0130013E0158045B045F018001844B850486208B018E109301950D9608971098049B029E88A201A508A648A904AB08B1
:400C4000AC90AD12AE6EAF0DB018B220B31CB407B503B6C0B820BA82BB20C026C501C620C705C819C9FFCAFFCBFFCDA0D804D904DA04DF01E040E140E2C0E4C0E6C00310A2
:400C80000440050406800D200E2210AA1540162017011B021C601D201E02261027102D402E082F09350436113F2845204F285628571068AA8702C0B4C2E0C4BFCA70CCE0A7
:400CC000CE60D020D2200064021A032006090708082D0AD20B200D010E09133015071609170819021A801D041E0920212310271028102A022B072E212F0F30073120323868
:400D000034C0350F371038023F414032460C47EB483449FF4AFF4BFF580459045A045B045F0162C0644065010450050106200C400D200E221480154016881C101D251F01ED
:400D40002406250227082C802E242F0134403506361037013C643E023F10452047085401568057085CA0650267106C806D406F01760A842186849040940297029A209D04BF
:400D80009E809F01A010A211A502A708A801A902C0F0C2E0C4D0CAF0CCF0CEF0D060D630D8C067806C2071108740D880DA80DC20E210A820A910EA80EE2001011001000019
:400DC00004000F403B300F4024310F4031320F403D330F4008400F4004410F4002600F40030405060708090A0B0C0E0F101112131415161718191B1C1D1E1F202122232584
:400E0000262728292A2B2E2F303132333435000000000000000000000000000000000000000000000000000000000000010101010101010101010101010202020202020218
:400E4000020303030303030304040404040505050506060606070707070808080909090A0A0A0B0B0B0C0C0D0D0D0E0E0F0F101011111212131314141515161617181819AA
:400E8000191A1B1B1C1D1D1E1F202021222323242526272728292A2B2C2D2E2F303132323334363738393A3B3C3D3E3F40424344454648494A4B4D4E4F51525355565759EA
:400EC0005A5C5D5F606263656668696B6D6E7072737577787A7C7E7F81838587898A8C8E90929496989A9C9EA0A2A4A7A9ABADAFB1B4B6B8BABDBFC1C4C6C8CBCDD0D2D570
:400F0000D7DADCDFE1E4E7E9ECEFF1F4F7F9FCFFFFFF0000FFCC0000FF990000FF330000FF000000B3006600990099006600B3003300CC001919B300003399000040990086
:400F4000006699000099990000CC990000E6660000FF000033FF000066FF000080FF000099FF0000B2FF0000CCFF0000E5FF000000000000000055000000AA000000FF0084
:400F800055000000550055005500AA005500FF00AA000000AA005500AA00AA00AA00FF00FF000000FF005500FF00AA00FF00FF0000550000005555000055AA000055FF00ED
:400FC00055550000555555005555AA005555FF00AA550000AA555500AA55AA00AA55FF00FF550000FF555500FF55AA00FF55FF0000AA000000AA550000AAAA0000AAFF005D
:4010000055AA000055AA550055AAAA0055AAFF00AAAA0000AAAA5500AAAAAA00AAAAFF00FFAA0000FFAA5500FFAAAA00FFAAFF0000FF000000FF550000FFAA0000FFFF00CC
:4010400055FF000055FF550055FFAA0055FFFF00AAFF0000AAFF5500AAFFAA00AAFFFF00FFFF0000FFFF5500FFFFAA00FFFFFF00FF800000FF008000FF00FF008000FF000F
:401080000080FF0000FF8000FF00000020202000000020000000001000FF000030FF0000FFFFFFFF000000FF808080FF404040FF0000FF000010F0000020E0000030D0003D
:4010C0000040C0000050B0000060A00000709000008080000090700000A0600000B0500000C0400000D0300000E0200000FF0000000000000000005F000000070007001470
:401100007F147F14242A7F2A12231308646236495522500005030000001C2241000041221C00082A1C2A0808083E08080050300000080808080800606000002010080402AC
:401140003E5149453E00427F400042615149462141454B311814127F1027454545393C4A49493001710905033649494936064949291E00363600000056360000000814224A
:4011800041141414141441221408000201510906324979413E7E1111117E7F494949363E414141227F4141221C7F494949417F090901013E414151327F0808087F00417FCD
:4011C00041002040413F017F081422417F404040407F0204027F7F0408107F3E4141413E7F090909063E4151215E7F09192946464949493101017F01013F4040403F1F20A0
:4012000040201F7F2018207F63140814630304780403615149454300007F4141020408102041417F000004020102044040404040000102040020545454787F4844443838F3
:4012400044444420384444487F3854545418087E090102081454543C7F0804047800447D40002040443D00007F10284400417F40007C041804787C080404783844444438E5
:401280007C14141408081414187C7C080404084854545420043F4440203C4040207C1C2040201C3C4030403C44281028440C5050503C4464544C44000836410000007F00E9
:4012C00000004136080008082A1C08081C2A080843000000F8B5C046F8BC08BC9E467047C9010000F5020000F8B5C046F8BC08BC9E467047A101000008130000C000002086
:4013000088000000400500000000000088060020010000000000E02EC05D00001800000000366E01040404000000000000000000000000000000000000000000000000003D
:401340000000000000000000D0120000000000000000000000000000000000000000000000000000000000000000000000000000000000000000000000000000000000008B
:401380000000000000000000E0000020000000000000000000000000000000000000000000000000000000000000000000000000000000000000000000000000000000002D
:4013C00000000000000000000000000000000000000000000000000000000000000000000000000000000000000000000000000000000000000000000000000000000000ED
:4014000000000000000000000000000000000000000000000000000000000000000000000000000000000000000000000000000000000000000000000000000000000000AC
:40144000000000000000000000000000000000000000000000000000000000000000000000000000000000000000000000000000000000000000000000000000000000006C
:40148000000000000000000000000000000000000000000000000000000000000000000000000000000000000000000000000000000000000000000000000000000000002C
:0200000490303A
:02000000C70433
:0200000490402A
:200000000000000000000000000000000000000000000000000000000000000000000000E0
:0200000490501A
:0C000000000204C81193110104CDD89730
:0200000490600A
:0100000001FE
:00000001FF