:400000000010002011000000850300008503000080B500AF00F0C0F980B500AF124B124A12688021C9020A431A60182000F03CFD0D4B0D4A12680D490A401A600C4B0D4A46
:400040001A600D4B10221A600C4B802212061A60054B00221A600A4B0A4A1A600A4B00221A60C046BD4680BD00010B40FFFFFBFF04010B40060000800802024008010B4077
:40008000000002400E0000800C020B4080B582B000AF72B6FB1D00221A7022E0FB1D1A7813005B009B185B002D4A9B183B603B681A78597809020A43997809040A43DB780C
:4000C0001B06134318003B681A795B791B0213439BB2190000F040F9FB1D1A78FB1D01321A70FB1D1B78012BD8D91E4BEE2212021A601D4BEE221A601C4B992212041A60B3
:400100001B4B992212041A601A4B992212041A60194A194B1B78DBB206210B43DBB21370164B04221A60164BC02252001A60154B40221A60144BC02252031A60134BD8223E
:4001400012011A60124B03221A60124B24221A60FFF762FF00F010F9C046BD4602B080BD841300000C0001401000014000500F4010500F4030500F4000700F40000004403C
:4001800008000440000104400801044008030440000404400804044010B5064C2378002B07D1054B002B02D0044800E000BF0123237010BD4801002000000000801300000D
:4001C000084B10B5002B03D00749084800E000BF07480368002B00D110BD064B002BFBD09847F9E7000000004C01002080130000C80000200000000080B582B000AFFB1D0B
:4002000001221A70012000F0BDFB012000F0E2FB00F05AF962B6FB1D1B78180000F014F8031EF8D100F04EF8031EF4D1FB1D1A78FB1D01321A70FB1D1B78072BEBD9FB1D02
:4002400000221A70E7E7C04680B584B000AF0200FB1D1A70FF23FB600823FB1801221A700823FB18FA1D12785A700823FB1817229A700823F91800230322082000F0BAF961
:40028000C04600F0EFFA020002231340F9D000F0E9FA020080239B0013400CD100F0D8FA0300032B07D1012000F06CFB002000F091FB0023FB6000F0F7FAFB681800BD461D
:4002C00004B080BD80B582B000AFFF237B60390000230322082000F01BFAC04600F0C2FA020001231340F9D000F0BCFA020080239B00134020D100F0A1FA0300032B23D17E
:400300003B001B78012B1FD13B009B78172B1BD13B005B78642B08D1012000F033FB002000F058FB00237B600EE0012000F02AFB012000F04FFB07E0002000F023FB01208C
:4003400000F048FBFF237B6000F0AEFA7B681800BD4602B080BDC04680B582B000AF786039603A687B680021180001F001F8C046BD4602B080BDC04680B500AFC046BD46A8
:4003800080BDC04680B500AF00F0C6FF03001B680C2B00D1FEE7FEE780B586B000AF224B7B61224B3B61204B7B6135E03B691B68FB603B695B68BB603B699B683B600023D8
:4003C0007B600CE0FB681A68BB681A60BB680433BB60FB680433FB607B6804337B607A683B689A42EED13B69DB683B6000237B6008E0BB6800221A60BB680433BB607B68B6
:4004000004337B607A683B689A42F2D13B6910333B617B69013B7B617B69002BC6D100F081FFFFF7E9FEFEE701000000E413000080B582B000AF00237B600FE07B68032B23
:4004400004D8104B7A689200D35800E00E4B0F4A796889008B507B6801337B607B682F2BECD9FFF713FE0A4B00221A608023DB058022D205126801210A431A60C046BD467B
:4004800002B080BD000000008503000000000020C000002080B500AF00F036F8C046BD4680BDC04680B500AF064B064A1268802109060A431A6000F019F800F01FF8C046F3
:4004C000BD4680BD0000064080B500AF064B1B78002B04D1FFF7DEFF034B01221A70FFF7E1FFC046BD4680BD6401002080B500AF0A2000F049FCC046BD4680BD80B500AFD2
:40050000C046BD4680BDC04680B500AF244B244A12680C210A431A60224B00221A60224B224A1A60224B234A1A60234B00221A60224B00221A60224B1E4A1A60214B0022A0
:400540001A600A2000F036FC03210A2000F0C8FB1D4B19000A2000F09DFB1C4B00221A601B4B00221A601B4B00221A601A4B1422FF321A60194B00221A60194B00221A6034
:40058000184B10221A70184B00221A80174B00221A60174B00221A60C046BD4680BDC04670000640000006406000064077080080000306400701008004030640100306409D
:4005C0000002064004020640450E0000C80E0640880E0640480F0640080F0640C80F0640880F06406C0100207C010020780100208001002080B586B000AFF860B9607A605F
:400600003B6004237B61BB68002B20D0324B1B78DBB2102B0CD10A2000F0CCFB2F4B1B680122134001D0082300E000237B610EE0294B1B78DBB2602B09D1294B1B889BB2AF
:40064000082293439AB2264B1A8000237B617B69002B38D1204B28221A70224B00221A60214B00221A60214B7A681A60204BBA681A603B68DAB21F4B1A70FB685B00FF22EB
:400680001340FB60164B1B889BB2022293439AB2134B1A80184B194A1A60194B40221A60184B40221A603B680122134005D000F013F9154BFA681A6005E0134BFA681A60F9
:4006C000124B02221A600A2000F05EFB7B691800BD4606B080BDC0466C010020640006407C0100208801002080010020900100207401002084010020000F0640170300001C
:40070000800F0640880F0640400206406800064080B586B000AFF860B9607A603B6004237B61BB68002B20D0374B1B78DBB2102B0CD10A2000F03EFB344B1B68012213400B
:4007400001D0082300E000237B610EE02E4B1B78DBB2602B09D12E4B1B889BB2082293439AB22B4B1A8000237B617B69002B43D1254B29221A70274B00221A60264B7A6825
:400780001A60264BBA681A603B68DAB2244B1A70FB685B00FF22134001221343FB601C4B1B889BB2012293439AB2194B1A801D4B1D4A1A60184B1B68072B03D81B4B042222
:4007C0001A6009E01A4B1A4A1268802149000A431A60164B08221A603B680122134005D000F07AF8134BFA681A6005E0114BFA681A60114B02221A600A2000F0C5FA7B693F
:400800001800BD4606B080BD6C010020640006407C010020780100208C0100207001002084010020000F064017030000C80F064060000640400206406800064080B500AF0E
:40084000024B1B681800BD4680BDC0467801002080B500AF024B1B681800BD4680BDC0468001002080B582B000AF0A2000F0A2FA0B4B1B889BB27B600A4B1B78DBB220225A
:400880001340DBB2002B03D07B68042213437B600A2000F079FA7B681800BD4602B080BD7C0100206C01002080B582B000AF0A2000F080FA074B1B889BB27B60054B002243
:4008C0001A800A2000F060FA7B681800BD4602B080BDC0467C01002080B582B000AF254B1B687B60C04600F09DF8031EFBD0002000F0A6F8204B204A12680F218A431A608B
:400900001E4B1E4A1268520052081A607B682022134010D0002000F093F80A2000F06CFA012000F08DF8C04600F0B0F8031EFBD00A2000F061FA002000F082F80A2000F09A
:400940005BFA0F4B01221A600C4B0C4A1268802109060A431A60084B074A12680F218A430E210A431A60012000F06AF8C046BD4602B080BD640006401000014000000640D0
:400980006800064080B584B000AF0200FB1D1A700F4B1B68DAB20F23FB1840218A431A70FB1D1B789B01DBB240221340D9B20F23FB180F22BA1812780A431A70044B0F222A
:4009C000BA1812781A60C046BD4604B080BDC0460001044080B584B000AF0200FB1D1A700F4B1B68DAB20F23FB1804218A431A70FB1D1B789B00DBB204221340D9B20F23ED
:400A0000FB180F22BA1812780A431A70044B0F22BA1812781A60C046BD4604B080BDC0460000044080B500AF044B1B68022213405B08DBB21800BD4680BDC04604040440DE
:400A400080B584B000AF0200FB1D1A700E4B1B68DAB20F23FB1801218A431A70FB1D1B7801221340D9B20F23FB180F22BA1812780A431A70044B0F22BA1812781A60C046E3
:400A8000BD4604B080BDC0460004044080B500AF044B1B68DBB201221340DBB21800BD4680BDC0460404044090B585B000AF78600C23FC1800F0BEF9030023707B68022B73
:400AC00000D8B3E07B68302B00D9AFE05E4B1B78DBB21A007B689A420AD35C4A0F23FB1812781A705A4A0E23FB1812781A703FE0584B1B78DBB21A007B689A420AD3564A33
:400B00000F23FB1812781A70544A0E23FB1812781A702DE0524B1B78DBB21A007B689A420AD3504A0F23FB1812781A704E4A0E23FB1812781A701BE04C4B1B78DBB21A0037
:400B40007B689A420AD34A4A0F23FB1812781A70484A0E23FB1812781A7009E0464A0F23FB1812781A70454A0E23FB1812781A707B68DA1E0B23FB1841498A5C1A700B2305
:400B8000FB181B782F2B0DD97B682A2B0AD93D4B19221A60052000F043F90D23FB1819221A7007E0374B1B68DAB20D23FB183F210A401A700B23FA180D23FB1812781B780F
:400BC0009A4208D22F4B7A68033A2D498A5C1A60052000F025F97B68284A9A180A23FB1812781A70284B0A22BA1812781A60274B0F22BA1812781A60254B0E22BA18127858
:400C00001A60052000F0F8F80B23FA180D23FB1812781B789A420CD91A4B7A68033A18498A5C1A60052000F0FBF802E0002000F0D7F80C23FB181B78180000F0FFF8C046EC
:400C4000BD4605B090BDC046C0F1FF0FC1F1FF0FC2F1FF0FC3F1FF0FC4F1FF0FC5F1FF0FC6F1FF0FC7F1FF0FC8F1FF0FC9F1FF0FCAF1FF0FCBF1FF0FCCF1FF0FCDF1FF0F9C
:400C8000901300002CFF0B4028FF0B401CFF0B4020FF0B4080B584B000AF02003960FB1D1A7080239B05FB60FB1D1B781F2B02D9002000F095F8FB1D1B7810339B00FA688E
:400CC000D3181B68BB60FB1D1B7810339B00FA68D3183A681A60BB681800BD4604B080BD90B587B000AF0200FB1D1A70BB1D0A1C1A70BB1D1B78032B02D9002000F070F807
:400D0000FB1D1B781F2B02D9002000F069F8FB1D1B7803221340DB0006337B611323FC1800F088F803002370FB1D1B789B08DBB29B00144A944663441B68FB6003227B69D3
:400D40009A401300DA43FB681340FB60BB1D1A787B699A401300FA681343FB60FB1D1B789B08DBB29B00074A94466344FA681A601323FB181B78180000F060F8C046BD46A1
:400D800007B090BD00E400E080B582B000AF0200FB1D1A70064BFA1D12781F210A40012191400A001A60C046BD4602B080BDC04600E100E080B582B000AF0200FB1D1A7045
:400DC000064BFA1D12781F210A40012191400A001A60C046BD4602B080BDC04680E100E080B582B000AF0200FB1D1A7001BEC046BD4602B080BDC04680B582B000AF020032
:400E0000BB1D1A80BB1D1B88044A12785343180000F006F8C046BD4602B080BDD40000200230800804D0C0460138FDD1C046C046C0467047EFF3108072B6704780F31088A5
:400E40007047C04680B582B000AF00233B60BE4B1B68002B02D0BC4B1B689847BB4B1B680122134002D0BA4B00221A60B94B1B78DBB220221340DBB2002B38D0B64B1A6881
:400E800080235B0013400AD0B44B1B889BB2C022920013439AB2B14B1A8001233B60AE4B1B68012213400AD0AC4B1B889BB29022920013439AB2A94B1A8001233B603B6824
:400EC000002B14D0A34B1B78DBB201221340DBB2002B01D0012300E00223A04A128892B213439AB29D4B1A809A4B00221A70994B1B78DBB220221340DBB2002B00D1A2E18B
:400F0000954B1B681022134018D0954B10221A60904B1B78DBB201221340DBB2002B01D0012300E002238D4A128892B213439AB28A4B1A80874B10221A70BAE1854B1B78E0
:400F4000DBB208221340DBB2002B29D0824B1B68022213400ED0824B02221A607F4B1B889BB28822920013439AB27C4B1A8001233B6015E0774B1B78DBB201221340DBB214
:400F8000002B03D0734B25221A7009E0714B24221A70744B1B68002B02D0734B10221A606C4B1B78DBB204221340DBB2002B00D111E1684B1B78DBB201221340DBB2002BBA
:400FC0005BD06A4B1B680822134033D0684B1A68684B1B680F211940674B1B68CB18D31A7B607B68082B02D908237B601EE07B68002B1BD1614B614A126861490A401A600C
:4010000008237B6001233B6010E05E4B1A685A4B1B68D2185C4B1B68DBB21370564B1B685A1C554B1A607B68013B7B607B68002BEBD11EE04D4B1B680422134019D0514BF5
:401040001A684D4B1B68D2184F4B1B68DBB21370494B1B685A1C484B1A60474B1A68444B1B689A4203D2494B04221A6001E001233B60474B474A1A60ADE0374B1B68022224
:40108000134032D0364B02221A60434B1B680F221A40414B196880231B020B4001D0012300E00023D2183D4B1B689A1A3B4B1A603A4B1A683A4B1A60284B1B889BB2842258
:4010C000920013439AB2254B1A80364B354A1268802149020A431A60324B324A126832490A401A6001233B6075E0304B1B681022134065D013E0294B1A681A4B1B689A425A
:4011000014D22B4A2B4B1968244B1B68CB181B78DBB21360214B1B685A1C204B1A601E4B1B680F221340082BE5D100E0C0461B4B1A680C4B1B689A4202D10B4B40221A60C9
:401140001D4B1E4A1A6046E0680100208C0E0640880E06406C0100200C0F06407C010020000F064090010020880F0640CC0F06408C010020080306407801002060000640EE
:40118000FFFEFFFF700100204003064068000640C00F0640ED0F000008020640880100208001002004020640FFFFFEFF8C0F06404002064074010020800F0640F3070000AD
:4011C0003E4B1B684022134005D03D4B1A683D4B1A6001233B603B68002B6AD03A4B3A4A12683A490A401A60394B00221A60394B00221A60384B1B78DBB202221340DBB2D5
:40120000002B15D0354B1B78DBB201221340DBB2002B01D0092300E00A23314A128892B213439AB22E4B1A802C4B60221A7040E02C4B2D4A126820210A4001D0182200E037
:4012400010221A6035E0254B1B78DBB210221340DBB2002B2DD1254B244A1268520052081A601E4B10221A70174B174A126820490A401A60144B144A12681E490A401A6073
:40128000134B00221A60134B00221A601A4B1B4A1A601B4B1B4A1A601B4B1C4A1A601C4B1C4A1A60114B114A1268802109060A431A60C046BD4602B080BDC0468C0F06409D
:4012C000880100208001002060000640FFFEFFFFC80F0640880F0640840100206C0100207C010020680006406400064000000640FF5FFFFFFFFCFFFF800F0640ED0F000076
:40130000C00F0640F3070000400F0640FF0F0000000F064017030000014B18687047C046400100200E4B70B500251E000D4CE41AA410A54204D0AB00F35898470135F8E731
:4013400000F03EF8084B00251E00084CE41AA410A54204D0AB00F35898470135F8E770BDCC130000CC130000CC130000D413000003008218934202D019700133FAE77047BC
:401380000000000000300F40000400400F400004030405060708090A0B0C0E0F101112131415161718191B1C1D1E1F2021222325262728292A2B2E2F3031323334354300E4
:4013C000F8B5C046F8BC08BC9E467047C101000031040000F8B5C046F8BC08BC9E46704799010000F8130000C80000208000000050000000000000000000000000366E0168
:40140000C05D0000180000000000E02E010000000000000000000000000000000000000000000000000000000000000000000000BE13000000000000000000000000000097
:40144000000000000000000000000000000000000000000000000000000000000000000000000000000000000000000000000000E00000200000000000000000000000006C
:40148000000000000000000000000000000000000000000000000000000000000000000000000000000000000000000000000000000000000000000000000000000000002C
:4014C00000000000000000000000000000000000000000000000000000000000000000000000000000000000000000000000000000000000000000000000000000000000EC
:4015000000000000000000000000000000000000000000000000000000000000000000000000000000000000000000000000000000000000000000000000000000000000AB
:40154000000000000000000000000000000000000000000000000000000000000000000000000000000000000000000000000000000000000000000000000000000000006B
:0200000490303A
:02000000798AFB
:0200000490402A
:200000000000000000000000000000000000000000000000000000000000000000000000E0
:0200000490501A
:0C000000000204C81193110104CE8B1DF6
:0200000490600A
:0100000001FE
:00000001FF