:400000000010002011000000F5040000F504000080B500AF00F078FA80B500AF154B154A12688021C9020A431A60182000F0F4FD104B104A126810490A401A600F4B104ADE
:400040001A60104B20221A600F4B10221A600F4B802212061A60074B00221A600C4B0D4A1A600D4B0D4A1A600D4B00221A60C046BD4680BD00010B40FFFFFBFF04010B404E
:4000800006000080080202403002024008010B400000024001000080400002400E0000800C020B4080B582B000AF72B6434B01221A70FB1D00221A7022E0FB1D1A7813007E
:4000C0005B009B185B003E4A9B183B603B681A78597809020A43997809040A43DB781B06134318003B681A795B791B0213439BB2190000F0A7F9FB1D1A78FB1D01321A7024
:40010000FB1D1B78012BD8D92E4A2F4B1100180000F0A8F92D4BC02292021A602C4BEE2212021A602B4BEE221A602B4B992212041A602A4BC02292041A60294B99221204A1
:400140001A60284B992212041A60274B05221A60264B06221A60264A254B1B78DBB23C218B43DBB214210B43DBB21370214A214B1B78DBB216210B43DBB213701E4B1422AB
:400180001A601E4BC322D2011A601D4B40221A601C4BC02252031A601B4BD82212011A601A4B03221A601A4B24221A60FFF734FF00F09AF9C046BD4602B080BD1C700F4039
:4001C000F41900001C1A0000001A0000000001400C0001401000014000500F4008500F4010500F4030500F402000004000800F4001700F4000700F400000044008000440C1
:40020000000104400801044008030440000404400804044010B5064C2378002B07D1054B002B02D0044800E000BF0123237010BD4801002000000000F0190000084B10B54A
:40024000002B03D00749084800E000BF07480368002B00D110BD064B002BFBD09847F9E7000000004C010020F0190000C80000200000000080B582B000AFFB1C01221A7080
:4002800000237B60002000F035FC012000F05AFC00F07EFE00F0D0F962B67A68FB1C1B781100180000F00AF8031E03D17B68180000F05AF87B6801337B60EEE780B58CB04A
:4002C00000AF02003960FB1D1A70FF23FB620823FB1801221A700823FB18FA1D12785A700823FB181722DA773B680122134007D10823F91800232022082000F033FA11E06F
:400300003B68184A134004D5013B0222524213430133012B06D10823F91800232022092000F020FAC04600F055FB020002231340F9D000F04FFB020080239B001340BB62C4
:40034000BB6A002B06D100F03BFB0300202B01D10023FB6200F060FBFB6A1800BD460CB080BDC0460100008080B58CB000AF7860FF23FB627B680122134007D10C23F9185D
:4003800000232022082000F07BFA11E07B682B4A134004D5013B0222524213430133012B06D10C23F91800232022092000F068FAC04600F00FFB020001231340F9D000F003
:4003C00009FB020080239B00134027D100F0EEFA0300202B2AD10C23FB181B78012B25D10C23FB18DB7F172B20D10C23FB189B781A00134B1B68D218114B1A60104B1B6899
:400400001A000123134003D1002000F09BFB02E0012000F097FB0023FB6207E0002000F069FB012000F08EFBFF23FB6200F0F4FAFB6A1800BD460CB080BDC046010000805A
:400440008C01002080B582B000AF786039603A687B680021180001F0C3FAC046BD4602B080BDC04680B586B000AF7860396000233B6100237B612FE07B699B007A68D3183A
:400480001B68BB600F23FB18BA681A70BB68FF229343BB6018E03B695B003A68D3181B781A00BB68D31819003B695B003A68D3185B780B703B6901333B610F23FB181A78FB
:4004C0000F23FB18013A1A700F23FB181B78002BE1D17B6901337B617B69062BCCD9C046BD4606B080BDC04680B500AFC046BD4680BDC04680B500AF01F046FA03001B68C2
:400500000C2B00D1FEE7FEE780B586B000AF224B7B61224B3B61204B7B6135E03B691B68FB603B695B68BB603B699B683B6000237B600CE0FB681A68BB681A60BB68043315
:40054000BB60FB680433FB607B6804337B607A683B689A42EED13B69DB683B6000237B6008E0BB6800221A60BB680433BB607B6804337B607A683B689A42F2D13B691033BA
:400580003B617B69013B7B617B69002BC6D101F001FAFFF76FFEFEE701000000AC20000080B582B000AF00237B600FE07B68032B04D8104B7A689200D35800E00E4B0F4A80
:4005C000796889008B507B6801337B607B682F2BECD9FFF767FD0A4B00221A608023DB058022D205126801210A431A60C046BD4602B080BD00000000F50400000000002007
:40060000C000002080B500AF00F036F8C046BD4680BDC04680B500AF064B064A1268802109060A431A6000F019F800F01FF8C046BD4680BD0000064080B500AF064B1B78BA
:40064000002B04D1FFF7DEFF034B01221A70FFF7E1FFC046BD4680BD6401002080B500AF0A2000F049FCC046BD4680BD80B500AFC046BD4680BDC04680B500AF244B244A91
:4006800012680C210A431A60224B00221A60224B224A1A60224B234A1A60234B00221A60224B00221A60224B1E4A1A60214B00221A600A2000F036FC03210A2000F0C8FB65
:4006C0001D4B19000A2000F09DFB1C4B00221A601B4B00221A601B4B00221A601A4B1422FF321A60194B00221A60194B00221A60184B10221A70184B00221A80174B0022B8
:400700001A60174B00221A60C046BD4680BDC04670000640000006406000064077080080000306400701008004030640100306400002064004020640B5140000C80E064064
:40074000880E0640480F0640080F0640C80F0640880F064090010020A00100209C010020A401002080B586B000AFF860B9607A603B6004237B61BB68002B20D0324B1B7864
:40078000DBB2102B0CD10A2000F0CCFB2F4B1B680122134001D0082300E000237B610EE0294B1B78DBB2602B09D1294B1B889BB2082293439AB2264B1A8000237B617B69E0
:4007C000002B38D1204B28221A70224B00221A60214B00221A60214B7A681A60204BBA681A603B68DAB21F4B1A70FB685B00FF221340FB60164B1B889BB2022293439AB25F
:40080000134B1A80184B194A1A60194B40221A60184B40221A603B680122134005D000F013F9154BFA681A6005E0134BFA681A60124B02221A600A2000F05EFB7B69180052
:40084000BD4606B080BDC0469001002064000640A0010020AC010020A4010020B401002098010020A8010020000F064017030000800F0640880F0640400206406800064020
:4008800080B586B000AFF860B9607A603B6004237B61BB68002B20D0374B1B78DBB2102B0CD10A2000F03EFB344B1B680122134001D0082300E000237B610EE02E4B1B789D
:4008C000DBB2602B09D12E4B1B889BB2082293439AB22B4B1A8000237B617B69002B43D1254B29221A70274B00221A60264B7A681A60264BBA681A603B68DAB2244B1A70CA
:40090000FB685B00FF22134001221343FB601C4B1B889BB2012293439AB2194B1A801D4B1D4A1A60184B1B68072B03D81B4B04221A6009E01A4B1A4A1268802149000A4372
:400940001A60164B08221A603B680122134005D000F07AF8134BFA681A6005E0114BFA681A60114B02221A600A2000F0C5FA7B691800BD4606B080BD900100206400064031
:40098000A00100209C010020B001002094010020A8010020000F064017030000C80F064060000640400206406800064080B500AF024B1B681800BD4680BDC0469C01002033
:4009C00080B500AF024B1B681800BD4680BDC046A401002080B582B000AF0A2000F0A2FA0B4B1B889BB27B600A4B1B78DBB220221340DBB2002B03D07B68042213437B6064
:400A00000A2000F079FA7B681800BD4602B080BDA00100209001002080B582B000AF0A2000F080FA074B1B889BB27B60054B00221A800A2000F060FA7B681800BD4602B0D3
:400A400080BDC046A001002080B582B000AF254B1B687B60C04600F09DF8031EFBD0002000F0A6F8204B204A12680F218A431A601E4B1E4A1268520052081A607B6820220D
:400A8000134010D0002000F093F80A2000F06CFA012000F08DF8C04600F0B0F8031EFBD00A2000F061FA002000F082F80A2000F05BFA0F4B01221A600C4B0C4A126880219B
:400AC00009060A431A60084B074A12680F218A430E210A431A60012000F06AF8C046BD4602B080BD6400064010000140000006406800064080B584B000AF0200FB1D1A70F9
:400B00000F4B1B68DAB20F23FB1840218A431A70FB1D1B789B01DBB240221340D9B20F23FB180F22BA1812780A431A70044B0F22BA1812781A60C046BD4604B080BDC0463C
:400B40000001044080B584B000AF0200FB1D1A700F4B1B68DAB20F23FB1804218A431A70FB1D1B789B00DBB204221340D9B20F23FB180F22BA1812780A431A70044B0F224A
:400B8000BA1812781A60C046BD4604B080BDC0460000044080B500AF044B1B68022213405B08DBB21800BD4680BDC0460404044080B584B000AF0200FB1D1A700E4B1B68BC
:400BC000DAB20F23FB1801218A431A70FB1D1B7801221340D9B20F23FB180F22BA1812780A431A70044B0F22BA1812781A60C046BD4604B080BDC0460004044080B500AFD4
:400C0000044B1B68DBB201221340DBB21800BD4680BDC0460404044090B585B000AF78600C23FC1800F03EFC030023707B68022B00D8B3E07B68302B00D9AFE05E4B1B7847
:400C4000DBB21A007B689A420AD35C4A0F23FB1812781A705A4A0E23FB1812781A703FE0584B1B78DBB21A007B689A420AD3564A0F23FB1812781A70544A0E23FB18127839
:400C80001A702DE0524B1B78DBB21A007B689A420AD3504A0F23FB1812781A704E4A0E23FB1812781A701BE04C4B1B78DBB21A007B689A420AD34A4A0F23FB1812781A70F2
:400CC000484A0E23FB1812781A7009E0464A0F23FB1812781A70454A0E23FB1812781A707B68DA1E0B23FB1841498A5C1A700B23FB181B782F2B0DD97B682A2B0AD93D4B84
:400D000019221A60052000F0C3FB0D23FB1819221A7007E0374B1B68DAB20D23FB183F210A401A700B23FA180D23FB1812781B789A4208D22F4B7A68033A2D498A5C1A606F
:400D4000052000F0A5FB7B68284A9A180A23FB1812781A70284B0A22BA1812781A60274B0F22BA1812781A60254B0E22BA1812781A60052000F0F8F80B23FA180D23FB1877
:400D800012781B789A420CD91A4B7A68033A18498A5C1A60052000F07BFB02E0002000F0D7F80C23FB181B78180000F07FFBC046BD4605B090BDC046C0F1FF0FC1F1FF0FDD
:400DC000C2F1FF0FC3F1FF0FC4F1FF0FC5F1FF0FC6F1FF0FC7F1FF0FC8F1FF0FC9F1FF0FCAF1FF0FCBF1FF0FCCF1FF0FCDF1FF0F941B00002CFF0B4028FF0B401CFF0B40A8
:400E000020FF0B4080B584B000AF02003960FB1D1A7080239B05FB60FB1D1B781F2B02D9002000F095F8FB1D1B7810339B00FA68D3181B68BB60FB1D1B7810339B00FA6889
:400E4000D3183A681A60BB681800BD4604B080BD90B587B000AF0200FB1D1A70BB1D0A1C1A70BB1D1B78032B02D9002000F070F8FB1D1B781F2B02D9002000F069F8FB1DA0
:400E80001B7803221340DB0006337B611323FC1800F008FB03002370FB1D1B789B08DBB29B00144A944663441B68FB6003227B699A401300DA43FB681340FB60BB1D1A78A3
:400EC0007B699A401300FA681343FB60FB1D1B789B08DBB29B00074A94466344FA681A601323FB181B78180000F0E0FAC046BD4607B090BD00E400E080B582B000AF020043
:400F0000FB1D1A70064BFA1D12781F210A40012191400A001A60C046BD4602B080BDC04600E100E080B582B000AF0200FB1D1A70064BFA1D12781F210A40012191400A002A
:400F40001A60C046BD4602B080BDC04680E100E080B582B000AF0200FB1D1A7001BEC046BD4602B080BDC04680B582B000AF0200BB1D1A80BB1D1B88044A127853431800B6
:400F800000F086FAC046BD4602B080BDD400002080B500AF1C4B03221A701C4B0E221A701B4B0C221A701B4B07221A701A4B01221A70182000F03AF80300180000F010F903
:400FC000154B00221A70002000F076F9002000F02FF9124B1B78002B10D1104B01221A700F4B180000F098F90E4B180000F0F2F9012000F0B3F9002000F00EFA0A4B01229E
:401000001A60C046BD4680BD91000F4041000F4021000F4031000F4070000F4074010020091100004D1000003802002080B582B000AF7860044B7A689200D3587B607B68D1
:401040001800BD4602B080BDC41C000080B500AF244B1A68244B1868244913001B019B1A5B001B189B005A58214B1A60204B1A68204B1B68DA40204B1B681A401C4B1A6092
:401080001E491B4B1B68FF2213401D4AD35C0B70174B1B681A0A164B1A601849144B1B68FF221340164AD35C0B70114B1B681A0A0F4B1A6011490E4B1B68FF221340104ADB
:4010C000D35C0B70084B1B685A1C074B1A60064B1B681D2B02D90B4B11221A70C046BD4680BDC0467C01002078010020B801002084010020340200203002002040000F40ED
:40110000C41B000070000F4080B500AF294B21221A70294B1B685A1C274B1A60264B1B68002B41D1254A244B1B68DBB21370224B1A68234913001B019B1ADB005A58214BB9
:401140001A60204B1A68204B1B68DA401F4B1B681A401C4B1A601E491A4B1B68FF2213401C4AD35C0B70174B1B681A0A154B1A601749144B1B68FF221340164AD35C0B7062
:40118000104B1B681A0A0F4B1A6011490D4B1B68FF2213400F4AD35C0B700F4B01221A60044B19221A7002E00C4B01221A60C046BD4680BD70000F407C01002071000F406A
:4011C000B801002088010020340200203002002040000F40C41B0000780100203802002080B584B000AF78600023FB6016E00023BB600DE00D49FA6813001B019B1A5B00DE
:40120000BA689B189B007A685A50BB680133BB60BB681D2BEED9FB680133FB60FB68002BE5D0C046BD4604B080BDC046B801002080B582B000AF78607B68022B0FD002D849
:40124000012B05D020E0032B10D0042B15D01BE0134B144A1A60144B01221A601CE0104B124A1A60104B02221A6015E00C4B104A1A600D4B03221A600EE0094B0D4A1A60CE
:40128000094B04221A6007E0054B012252421A60054B00221A60C046C046BD4602B080BD300200207F7F7F7F340200203F3F3F3F1F1F1F1F0F0F0F0F80B582B000AF7860A2
:4012C0007B68002B0CD10F4B0F4A1A600F4B05221A600F4B07221A600E4B20221A600CE0084B094A1A60094B05221A60084B07221A60084B20221A60C046C046BD4602B002
:4013000080BDC04644020020A41E00003C020020480200204002002080B582B000AF786000F04EF87B68180000F00AF8032000F015F800F03BF8C046BD4602B080BDC046C6
:4013400080B582B000AF7860034B7A681A64C046BD4602B080BDC0460000002090B585B000AF0200FB1D1A700623FB600B23FC1800F098F8030023700B4B0B4A1268C02104
:401380008A431100FA1D1078FA68904002000A431A600B23FB181B78180000F087F8C046BD4605B090BDC04600E400E080B500AF024B01221A60C046BD4680BD00E100E0B0
:4013C00080B500AF024B01221A60C046BD4680BD80E100E080B582B000AF786000F04EF87B68180000F00AF8032000F015F800F03BF8C046BD4602B080BDC04680B582B0DF
:4014000000AF7860034B7A689A64C046BD4602B080BDC0460000002090B585B000AF0200FB1D1A701623FB600B23FC1800F03AF8030023700A4B0A4A12680A491140FA1DA0
:401440001078FA68904002000A431A600B23FB181B78180000F02AF8C046BD4605B090BD00E400E0FFFF3FFF80B500AF024B04221A60C046BD4680BD00E100E080B500AF24
:40148000024B04221A60C046BD4680BD80E100E00230800804D0C0460138FDD1C046C046C0467047EFF3108072B6704780F310887047C04680B582B000AF00233B60BE4B5E
:4014C0001B68002B02D0BC4B1B689847BB4B1B680122134002D0BA4B00221A60B94B1B78DBB220221340DBB2002B38D0B64B1A6880235B0013400AD0B44B1B889BB2C02299
:40150000920013439AB2B14B1A8001233B60AE4B1B68012213400AD0AC4B1B889BB29022920013439AB2A94B1A8001233B603B68002B14D0A34B1B78DBB201221340DBB279
:40154000002B01D0012300E00223A04A128892B213439AB29D4B1A809A4B00221A70994B1B78DBB220221340DBB2002B00D1A2E1954B1B681022134018D0954B10221A60C8
:40158000904B1B78DBB201221340DBB2002B01D0012300E002238D4A128892B213439AB28A4B1A80874B10221A70BAE1854B1B78DBB208221340DBB2002B29D0824B1B68AB
:4015C000022213400ED0824B02221A607F4B1B889BB28822920013439AB27C4B1A8001233B6015E0774B1B78DBB201221340DBB2002B03D0734B25221A7009E0714B242221
:401600001A70744B1B68002B02D0734B10221A606C4B1B78DBB204221340DBB2002B00D111E1684B1B78DBB201221340DBB2002B5BD06A4B1B680822134033D0684B1A6893
:40164000684B1B680F211940674B1B68CB18D31A7B607B68082B02D908237B601EE07B68002B1BD1614B614A126861490A401A6008237B6001233B6010E05E4B1A685A4B18
:401680001B68D2185C4B1B68DBB21370564B1B685A1C554B1A607B68013B7B607B68002BEBD11EE04D4B1B680422134019D0514B1A684D4B1B68D2184F4B1B68DBB2137040
:4016C000494B1B685A1C484B1A60474B1A68444B1B689A4203D2494B04221A6001E001233B60474B474A1A60ADE0374B1B680222134032D0364B02221A60434B1B680F229C
:401700001A40414B196880231B020B4001D0012300E00023D2183D4B1B689A1A3B4B1A603A4B1A683A4B1A60284B1B889BB28422920013439AB2254B1A80364B354A1268CF
:40174000802149020A431A60324B324A126832490A401A6001233B6075E0304B1B681022134065D013E0294B1A681A4B1B689A4214D22B4A2B4B1968244B1B68CB181B78D1
:40178000DBB21360214B1B685A1C204B1A601E4B1B680F221340082BE5D100E0C0461B4B1A680C4B1B689A4202D10B4B40221A601D4B1E4A1A6046E0680100208C0E064024
:4017C000880E0640900100200C0F0640A0010020000F0640B4010020880F0640CC0F0640B0010020080306409C01002060000640FFFEFFFF940100204003064068000640A6
:40180000C00F0640ED0F000008020640AC010020A401002004020640FFFFFEFF8C0F06404002064098010020800F0640F30700003E4B1B684022134005D03D4B1A683D4B55
:401840001A6001233B603B68002B6AD03A4B3A4A12683A490A401A60394B00221A60394B00221A60384B1B78DBB202221340DBB2002B15D0354B1B78DBB201221340DBB2C3
:40188000002B01D0092300E00A23314A128892B213439AB22E4B1A802C4B60221A7040E02C4B2D4A126820210A4001D0182200E010221A6035E0254B1B78DBB2102213408E
:4018C000DBB2002B2DD1254B244A1268520052081A601E4B10221A70174B174A126820490A401A60144B144A12681E490A401A60134B00221A60134B00221A601A4B1B4A05
:401900001A601B4B1B4A1A601B4B1C4A1A601C4B1C4A1A60114B114A1268802109060A431A60C046BD4602B080BDC0468C0F0640AC010020A401002060000640FFFEFFFFA1
:40194000C80F0640880F0640A801002090010020A0010020680006406400064000000640FF5FFFFFFFFCFFFF800F0640ED0F0000C00F0640F3070000400F0640FF0F0000BC
:40198000000F064017030000014B18687047C046400100200E4B70B500251E000D4CE41AA410A54204D0AB00F35898470135F8E700F06AFB084B00251E00084CE41AA4106C
:4019C000A54204D0AB00F35898470135F8E770BD9420000094200000942000009C20000003008218934202D019700133FAE770470000000000300F40000400400F4000048E
:401A000004000F4064300F4043310F4003330F4008400F4003410F4002600F40011811182114310C006D0212030804A40504065307900B570E89120C15021649172019A0EF
:401A40001A491B5F1C0C215722492308240226102D0130073330343835C036C0370F38203A803B28401245C046E047B0482A49FF4AFF4BFF580459045A045B045F0162C064
:401A8000644065018006810182388308861088028B108C018F19910392019408962699049C019F10A002A204A308A401A706A801AC04B00EB220B307B418B508B601B71088
:401AC000B908BE40BF50C025C520C622C751C83EC9FFCAFFCBFFCDA0D804D904DA04DB04DF01E040E140E2C0E4C0E6C001820320040405020608070108400A400B550E82B0
:401B00000F2010A015021601171419821B301C241D841E802001220423142620272229822D012F20320433203542372038013A103B043C203E403F01400547204B014C80DC
:401B40004F80512156195740584059106134634069016A406E026F15702071408620C0FDC2BFC4FCCAC9CCB6CEB7D02CD210D60CD803AB02B580EA10660869026F08850111
:401B8000D880DA80DC20E640AB08B608EE80010110010000030405060708090A0B0C0E0F101112131415161718191B1C1D1E1F2021222325262728292A2B2E2F30313233D8
:401BC000343500000000000000000000000000000000000000000000000000000000000001010101010101010101010101020202020202020203030303030303040404043A
:401C0000040505050506060606070707070808080909090A0A0A0B0B0B0C0C0D0D0D0E0E0F0F101011111212131314141515161617181819191A1B1B1C1D1D1E1F202021A6
:401C4000222323242526272728292A2B2C2D2E2F303132323334363738393A3B3C3D3E3F40424344454648494A4B4D4E4F515253555657595A5C5D5F606263656668696BDB
:401C80006D6E7072737577787A7C7E7F81838587898A8C8E90929496989A9C9EA0A2A4A7A9ABADAFB1B4B6B8BABDBFC1C4C6C8CBCDD0D2D5D7DADCDFE1E4E7E9ECEFF1F47F
:401CC000F7F9FCFFFFFF0000FFCC0000FF990000FF330000FF000000B3006600990099006600B3003300CC001919B3000033990000409900006699000099990000CC9900E4
:401D000000E6660000FF000033FF000066FF000080FF000099FF0000B2FF0000CCFF0000E5FF000000000000000055000000AA000000FF0055000000550055005500AA004E
:401D40005500FF00AA000000AA005500AA00AA00AA00FF00FF000000FF005500FF00AA00FF00FF0000550000005555000055AA000055FF0055550000555555005555AA0020
:401D80005555FF00AA550000AA555500AA55AA00AA55FF00FF550000FF555500FF55AA00FF55FF0000AA000000AA550000AAAA0000AAFF0055AA000055AA550055AAAA0090
:401DC00055AAFF00AAAA0000AAAA5500AAAAAA00AAAAFF00FFAA0000FFAA5500FFAAAA00FFAAFF0000FF000000FF550000FFAA0000FFFF0055FF000055FF550055FFAA0000
:401E000055FFFF00AAFF0000AAFF5500AAFFAA00AAFFFF00FFFF0000FFFF5500FFFFAA00FFFFFF00FF800000FF008000FF00FF008000FF000080FF0000FF8000FF0000003F
:401E400020202000000020000000001000FF000030FF0000FFFFFFFF000000FF808080FF404040FF0000FF000010F0000020E0000030D0000040C0000050B0000060A0006C
:401E800000709000008080000090700000A0600000B0500000C0400000D0300000E0200000FF0000000000000000005F00000007000700147F147F14242A7F2A1223130835
:401EC000646236495522500005030000001C2241000041221C00082A1C2A0808083E080800503000000808080808006060000020100804023E5149453E00427F400042614D
:401F00005149462141454B311814127F1027454545393C4A49493001710905033649494936064949291E003636000000563600000008142241141414141441221408000255
:401F400001510906324979413E7E1111117E7F494949363E414141227F4141221C7F494949417F090901013E414151327F0808087F00417F41002040413F017F0814224105
:401F80007F404040407F0204027F7F0408107F3E4141413E7F090909063E4151215E7F09192946464949493101017F01013F4040403F1F2040201F7F2018207F631408148A
:401FC000630304780403615149454300007F4141020408102041417F000004020102044040404040000102040020545454787F484444383844444420384444487F3854543B
:402000005418087E090102081454543C7F0804047800447D40002040443D00007F10284400417F40007C041804787C0804047838444444387C14141408081414187C7C0862
:402040000404084854545420043F4440203C4040207C1C2040201C3C4030403C44281028440C5050503C4464544C44000836410000007F0000004136080008082A1C08083E
:402080001C2A080843000000F8B5C046F8BC08BC9E4670473D020000A1050000F8B5C046F8BC08BC9E46704715020000C0200000C8000020800000000801000000000000AE
:4020C0000000000000366E01C05D0000180000000000E02E010000000000000000000000000000000000000000000000000000000000000000000000842000000000000053
:402100000000000000000000000000000000000000000000000000000000000000000000000000000000000000000000000000000000000000000000E0000020000000009F
:40214000000000000000000000000000000000000000000000000000000000000000000000000000000000000000000000000000000000000000000000000000000000005F
:40218000000000000000000000000000000000000000000000000000000000000000000000000000000000000000000000000000000000000000000000000000000000001F
:4021C00000000000000000000000000000000000000000000000000000000000000000000000000000000000000000000000000000000000000000000000000000000000DF
:40220000000000000000000000000000000000000000000000000000000000000000000000000000000000000000000000000000000000000000000000000000000000009E
:0200000490303A
:02000000289244
:0200000490402A
:200000000000000000000000000000000000000000000000000000000000000000000000E0
:0200000490501A
:0C000000000204C81193110104D23A253B
:0200000490600A
:0100000001FE
:00000001FF