:4000000000100020110000008D0200008D02000010B500F043F9C04670B5134C23688022D20213432360182000F0C0FB22680F4B134023600E4A0F4B1A6010220E4B1A603E
:40004000802212060D4B1A60002525600C4A0D4B1A600D49092000F075FB092000F066FB0A4B1D6070BDC04600010B40FFFFFBFF0600008004010B403002024008010B40E2
:400080000100008000000240BD0900000C020B4010B572B601222A4B1A7000240FE029486200131959000B00411889881A5AC31858880004104300F0E3F80134E4B2012C26
:4000C000EDD920490C3120484C3000F0BFF8C02292021E4B1A60EE2212021D4B1A6099231B041C4A1360C02189041B4A11601B4A13601B4A136005221A4B1A6001321A4B64
:400100001A601A490B783632934314221343DBB20B70174A117816230B43DBB213709022144B1A60144A154B1A6080229203144B1A60D8221201134B1A60FFF76DFF10BD25
:400140001C700F40180B0000980C0000000001400C00014000500F4008500F4020500F4030500F402000004000800F4001700F4000700F400000044080614000080004401C
:40018000080204400803044010B5064C2378002B07D1054B002B02D0044800E000BF0123237010BD4001002000000000140B0000084B10B5002B03D00749084800E000BF5C
:4001C00007480368002B00D110BD064B002BFBD09847F9E70000000044010020140B0000C00000200000000070B562B600F0D0F9002000F091F9482000F060F9050000F0DC
:400200003BFC00F02DFC00240CE02A000021200000F070F900F044F90028FBD0012000F0FFF801341E2CF0D90A2000F09DFA00F023FC002804D05E2000F040F90500DEE7FD
:40024000482000F03BF90500D9E7C046F0B50025002711E0BB00C658F3B2FF22964308E06A008A181478A419527822700135013BDBB2002BF4D10137072FEBD9F0BDC04660
:4002800010B50A00002100F03DFC10BD10B500F00DFC03680C2B00D1FEE7FEE770B50F4E0F4D13E029686B68AC68002202E001C901C30432A242FAD1E868002202E0002128
:4002C00002C304328242FAD11035013E002EE9D100F0F2FBFFF788FFFEE7C046010000001812000010B500230AE0032B03D89A000949505800E009489900094A8850013300
:400300002F2BF2D9FFF7C4FE8022D205116801230B43136010BDC046000000008D0200000000002070B514490A68D3009B1A5B004A689B189B0011481B5811480068C34020
:40034000104800680340FF25280018400E4C265C0E4806701E0A2E40A65D06701B0C8B602B40E35C037001324A600D2A02D91122074B1A7070BDC0465C0100209C01002085
:40038000D8010020D4010020040D000042000F4072000F4030B52122184B1A70184A136801331360002B25D1DBB2164A1370144A1168CB005B1ADB0013495B5813490968F4
:4003C000CB40134909680B40FF24210019401148455C11490D701D0A2540455D0D701B0CD3602340C35C0B70012353601922034B1A7002E00122094B1A6030BD72000F40FF
:400400005C01002070000F409C010020D8010020D4010020040D000042000F40DC01002030B5002804D00023144A1360144A1370124D2A68D3009B1ADA00124BD358124A49
:400440001268D340114A12681340FF2002001A400F498C5C0F4A14701C0A04400C5D14701B0C0340CB5C137001236B6019220A4B1A700022094B1A6030BDC0465C0100205B
:4004800070000F409C010020D8010020D4010020040D000042000F4072000F40DC010020044B1868002803D00022034B1A7001207047C046DC01002072000F408000014B46
:4004C000C0587047040E000010B500240CE0E200121B53005B189B00054A9850013100E000210D29F3D90134002CF9D010BDC0469C01002000280CDB00290ADB0D2808DC7A
:40050000002906DCCB00591A4B0018188000014BC25070479C01002002280FD002D8012805D020E0032810D0042815D01BE0124A124B1A600122124B1A601BE0114A0F4BD0
:400540001A6002220E4B1A6014E00F4A0B4B1A6003220B4B1A600DE00C4A084B1A600422074B1A6006E001225242044B1A600022034B1A607047C0467F7F7F7FD4010020F8
:40058000D80100203F3F3F3F1F1F1F1F0F0F0F0F10B50322184B1A700B32184B1A70023A174B1A70053A174B1A70174C012323701820FFF783FFFFF787FF0023237000201E
:4005C00000F02CF80020FFF7A7FF104B1B7F002B0ED101220D4B1A770D4800F067F80D4800F096F8012000F045F8002000F072F80122094B1A6010BD91000F4041000F40B3
:4006000021000F4031000F4072000F405C0100209503000025030000DC01002000280CD10C4A0D4B1A6005220C4B1A6002320C4B1A6019320B4B1A600BE0064A064B1A6084
:400640000522064B1A600232054B1A601932054B1A607047E40F0000E8010020E0010020EC010020E4010020014B18647047C0460000002010B5040000F010FA044A13687E
:40068000C0218B43A4011C43146000F00BFA10BD00E400E00122014B1A60704700E100E00122014B1A60704780E100E010B50400FFF7F6FF2000FFF7D7FF0320FFF7DAFFB9
:4006C000FFF7E8FF10BDC046014B98647047C0460000002010B5040000F0E0F9044A1168044B0B40A4051C43146000F0DBF910BD00E400E0FFFF3FFF0422014B1A60704782
:4007000000E100E00422014B1A60704780E100E010B50400FFF7F6FF2000FFF7D5FF0320FFF7D8FFFFF7E8FF10BDC0461F2318401E3B8340014A13607047C04600E100E0E4
:4007400001BE704770B504000D001F2802D90020FFF7F6FF1034A40080239B059C4664442068256070BDC04610B5040006E0084B586800F089F9074B9C46644480231B02DB
:400780009C42F4D8024B9868604300F07DF910BDC40000200080FFFF10B5034B1B7B584300F072F910BDC046C4000020F0B557464E46C0B483B0040000F070F90190E71E44
:4007C0002D2F74D83F4B1B78DBB29C4208D83E4B1B78DBB29A463D4B1B78DBB2994631E03B4B1B78DBB29C4208D83A4B1B78DBB29A46394B1B78DBB2994623E0374B1B7844
:40080000DBB29C4208D8364B1B78DBB29A46354B1B78DBB2994615E0334B1B78DBB29C4208D8324B1B78DBB29A46314B1B78DBB2994607E02F4B1B78DBB29A462E4B1B78B7
:40084000DBB299462D4BDE5D2F2E09D92A2C07D919222B4B1A60052000F016F9192503E0274B1D683F231D40B54206D9234BDA5D234B1A60052000F007F91F4B9C46644452
:400880002378DBB21F4A13601F4B52461A601F4B4A461A600520FFF77FFFB5420AD2174BDA5D174B1A60052000F0EEF802E00020FFF746FF019800F0F5F803B00CBC914663
:4008C0009A46F0BDC0F1FF0FC1F1FF0FC2F1FF0FC3F1FF0FC4F1FF0FC5F1FF0FC6F1FF0FC7F1FF0FC8F1FF0FC9F1FF0FCAF1FF0FCBF1FF0FCCF1FF0FCDF1FF0FC4110000C9
:400900002CFF0B4028FF0B401CFF0B4020FF0B40034B1868C0231B02184000D00120704700010B4010B500F0B9F8044A1368C02109020B43136000F0B5F810BD00010B4053
:4009400010B500F0ABF808490A68084B1A408024E40122430A600A6813408022120213430B6000F09FF810BD00010B40FF3FFFFF70B5050000F092F80400FFF7C9FF0028B1
:4009800003D0FFF7DDFF012100E0002108482840084A1568084B2B40184310601368012901D1FFF7BFFF200000F07CF870BDC0460404040010020B40FBFBFBFF10B5244BF0
:4009C0001B685B0715D5234B1B685B070ED5224BD969042001401F4C22688A432260DA698243DA611B69002B00D098470420FFF7BFFF174B1B685B0518D5164B1B685B05AB
:400A000010D5154BD9698022D2001140114802688A430260D969114A0A40DA615B69002B00D098478020C000FFF7A2FF084B1B685B030CD5074B1B685B0304D5064B9B694B
:400A4000002B00D098478020C002FFF791FF10BD10020B40D80000207C010020FFFBFFFF04490A68D2B204239A438000184010430860704700000440024B1868C00901236E
:400A800018407047040204400230800804D0C0460138FDD1C046C046C0467047EFF3108072B6704780F310887047C046014B18687047C0463C0100200E4B70B500251E00B9
:400AC0000D4CE41AA410A54204D0AB00F35898470135F8E700F08EFB084B00251E00084CE41AA410A54204D0AB00F35898470135F8E770BD00120000001200000012000029
:400B00000812000003008218934202D019700133FAE770470000000000300F40000400400F400004011811182114310C06012001240128012C0130013E0158045B045F010A
:400B40008001844B850486208B018E109301950D9608971098049B029E88A201A508A648A904AB08AC90AD12AE6EAF0DB018B220B31CB407B503B6C0B820BA82BB20C0265A
:400B8000C501C620C705C819C9FFCAFFCBFFCDA0D804D904DA04DF01E040E140E2C0E4C0E6C003100440050406800D200E2210AA1540162017011B021C601D201E022610A4
:400BC00027102D402E082F09350436113F2845204F285628571068AA8702C0B4C2E0C4BFCA70CCE0CE60D020D2200064021A032006090708082D0AD20B200D010E091330AC
:400C000015071609170819021A801D041E0920212310271028102A022B072E212F0F30073120323834C0350F371038023F414032460C47EB483449FF4AFF4BFF580459045E
:400C40005A045B045F0162C0644065010450050106200C400D200E221480154016881C101D251F012406250227082C802E242F0134403506361037013C643E023F1045207E
:400C800047085401568057085CA0650267106C806D406F01760A842186849040940297029A209D049E809F01A010A211A502A708A801A902C0F0C2E0C4D0CAF0CCF0CEF00A
:400CC000D060D630D8C067806C2071108740D880DA80DC20E210A820A910EA80EE2001011001000004000F403B300F4024310F4031320F403D330F4008400F4004410F4072
:400D000002600F40000000000000000000000000000000000000000000000000000000000101010101010101010101010102020202020202020303030303030304040404C0
:400D4000040505050506060606070707070808080909090A0A0A0B0B0B0C0C0D0D0D0E0E0F0F101011111212131314141515161617181819191A1B1B1C1D1D1E1F20202175
:400D8000222323242526272728292A2B2C2D2E2F303132323334363738393A3B3C3D3E3F40424344454648494A4B4D4E4F515253555657595A5C5D5F606263656668696BAA
:400DC0006D6E7072737577787A7C7E7F81838587898A8C8E90929496989A9C9EA0A2A4A7A9ABADAFB1B4B6B8BABDBFC1C4C6C8CBCDD0D2D5D7DADCDFE1E4E7E9ECEFF1F44E
:400E0000F7F9FCFFFFFF0000FFCC0000FF990000FF330000FF000000B3006600990099006600B3003300CC001919B3000033990000409900006699000099990000CC9900B2
:400E400000E6660000FF000033FF000066FF000080FF000099FF0000B2FF0000CCFF0000E5FF000000000000000055000000AA000000FF0055000000550055005500AA001D
:400E80005500FF00AA000000AA005500AA00AA00AA00FF00FF000000FF005500FF00AA00FF00FF0000550000005555000055AA000055FF0055550000555555005555AA00EF
:400EC0005555FF00AA550000AA555500AA55AA00AA55FF00FF550000FF555500FF55AA00FF55FF0000AA000000AA550000AAAA0000AAFF0055AA000055AA550055AAAA005F
:400F000055AAFF00AAAA0000AAAA5500AAAAAA00AAAAFF00FFAA0000FFAA5500FFAAAA00FFAAFF0000FF000000FF550000FFAA0000FFFF0055FF000055FF550055FFAA00CE
:400F400055FFFF00AAFF0000AAFF5500AAFFAA00AAFFFF00FFFF0000FFFF5500FFFFAA00FFFFFF00FF800000FF008000FF00FF008000FF000080FF0000FF8000FF0000000E
:400F800020202000000020000000001000FF000030FF0000FFFFFFFF000000FF808080FF404040FF0000FF000010F0000020E0000030D0000040C0000050B0000060A0003B
:400FC00000709000008080000090700000A0600000B0500000C0400000D0300000E0200000FF0000000000000000005F00000007000700147F147F14242A7F2A1223130804
:40100000646236495522500005030000001C2241000041221C00082A1C2A0808083E080800503000000808080808006060000020100804023E5149453E00427F400042611B
:401040005149462141454B311814127F1027454545393C4A49493001710905033649494936064949291E003636000000563600000008142241141414141441221408000224
:4010800001510906324979413E7E1111117E7F494949363E414141227F4141221C7F494949417F090901013E414151327F0808087F00417F41002040413F017F08142241D4
:4010C0007F404040407F0204027F7F0408107F3E4141413E7F090909063E4151215E7F09192946464949493101017F01013F4040403F1F2040201F7F2018207F6314081459
:40110000630304780403615149454300007F4141020408102041417F000004020102044040404040000102040020545454787F484444383844444420384444487F38545409
:401140005418087E090102081454543C7F0804047800447D40002040443D00007F10284400417F40007C041804787C0804047838444444387C14141408081414187C7C0831
:401180000404084854545420043F4440203C4040207C1C2040201C3C4030403C44281028440C5050503C4464544C44000836410000007F0000004136080008082A1C08080D
:4011C0001C2A0808030405060708090A0B0C0E0F101112131415161718191B1C1D1E1F2021222325262728292A2B2E2F3031323334354300F8B5C046F8BC08BC9E467047A0
:40120000B1010000E5020000F8B5C046F8BC08BC9E4670478901000028120000C000002080000000B000000000000000010000000000E02EC05D00001800000000366E0192
:40124000040404000000000000000000000000000000000000000000000000000000000000000000F21100000000000000000000000000000000000000000000000000005F
:40128000000000000000000000000000000000000000000000000000000000000000000000000000DC00002000000000000000000000000000000000000000000000000032
:4012C00000000000000000000000000000000000000000000000000000000000000000000000000000000000000000000000000000000000000000000000000000000000EE
:4013000000000000000000000000000000000000000000000000000000000000000000000000000000000000000000000000000000000000000000000000000000000000AD
:40134000000000000000000000000000000000000000000000000000000000000000000000000000000000000000000000000000000000000000000000000000000000006D
:40138000000000000000000000000000000000000000000000000000000000000000000000000000000000000000000000000000000000000000000000000000000000002D
:0200000490303A
:0200000081CFAE
:0200000490402A
:200000000000000000000000000000000000000000000000000000000000000000000000E0
:0200000490501A
:0C000000000204C81193110104CD9362AA
:0200000490600A
:0100000001FE
:00000001FF