:400000000010002011000000610500006105000080B500AF00F0AEFA80B500AF154B154A12688021C9020A431A60182000F044FD104B104A126810490A401A600F4B104A7E
:400040001A60104B20221A600F4B10221A600F4B802212061A60074B00221A600C4B0D4A1A600D4B0D4A1A600D4B00221A60C046BD4680BD00010B40FFFFFBFF04010B404E
:4000800006000080080202403002024008010B400000024001000080400002400E0000800C020B4080B582B000AF72B6494B01221A70FB1D00221A7022E0FB1D1A78130078
:4000C0005B009B185B00444A9B183B603B681A78597809020A43997809040A43DB781B06134318003B681A795B791B0213439BB2190000F0DDF9FB1D1A78FB1D01321A70E8
:40010000FB1D1B78012BD8D9344A354B1100180000F0DEF9334BC02292021A60324BEE2212021A60314BEE221A60314B992212041A60304BC02292041A602F4B992212043B
:400140001A602E4B992212041A602D4B992212041A602C4B05221A602B4B06221A602B4A2A4B1B78DBB23C218B43DBB214210B43DBB21370264A264B1B78DBB216210B4373
:40018000DBB21370234B9C221A60234B234A1A60234B40221A60234BC02252031A60224B40221A60214B802212031A60204B51221A60204B204A1A60204B03221A60204BC9
:4001C00024221A60FFF728FF00F0C4F9C046BD4602B080BD1C700F402C1400005414000038140000000001400C0001401000014000500F4008500F4010500F4020500F401B
:4002000030500F402000004000800F4001700F4000700F400000044008000440806D4000000104400801044000020440080204400003044008030440822D080000040440C9
:400240000804044010B5064C2378002B07D1054B002B02D0044800E000BF0123237010BD680100200000000008140000084B10B5002B03D00749084800E000BF0748036809
:40028000002B00D110BD064B002BFBD09847F9E7000000006C01002008140000C80000200000000090B583B000AFFB1D00221A70434B1722DA77BB1D00221A70012000F046
:4002C000D7F9002000F0FCF9002000F021FA3C4B2021180000F08AFB3A4B2021180000F0ABFB082000F066FB00F054FA62B600F09FFD031E0AD1FB1D1B78002B06D0FB1D1A
:4003000001221A70002000F0B3F924E000F090FD031E1AD1FB1D1B7801225340DBB2002B13D0294B1B780133DAB2274B1A70FB1D01221A70002000F09BF9234B1B78102B63
:4003400009D1214B00221A7005E0FB1D00221A70012000F08DF900F0E3FA02001023134022D000F08BFB0300202B0FD1154B1B78012B0BD1134BDB7F172B07D1114B5B7864
:40038000BC1D180000F022F80300237000F08AFB00F0F0FA0A4B00225A700B4B1A78084B9A70094B00221A7000F0BAFA0200012313409CD000F06CFB00F0BCFA97E7C046CD
:4003C000CC000020900100208401002080B584B000AF78600F23FB18334A12781A707B68072B55D87B689A00304BD3181B689F46002000F03DF9012000F062F9012000F0A5
:4004000087F94AE0012000F033F9002000F058F9012000F07DF940E0012000F029F9012000F04EF9002000F073F936E0002000F01FF9002000F044F9012000F069F92CE0BC
:40044000002000F015F9012000F03AF9002000F05FF922E0012000F00BF9002000F030F9002000F055F918E0002000F001F9002000F026F9002000F04BF90EE0012000F080
:40048000F7F8012000F01CF9012000F041F904E00F23FB18FF221A70C0460F23FB181B781800BD4604B080BD840100200C14000080B582B000AF786039603A687B6800212C
:4004C000180000F099FFC046BD4602B080BDC04680B586B000AF7860396000233B6100237B612FE07B699B007A68D3181B68BB600F23FB18BA681A70BB68FF229343BB60F6
:4005000018E03B695B003A68D3181B781A00BB68D31819003B695B003A68D3185B780B703B6901333B610F23FB181A780F23FB18013A1A700F23FB181B78002BE1D17B699B
:4005400001337B617B69062BCCD9C046BD4606B080BDC04680B500AFC046BD4680BDC04680B500AF00F01CFF03001B680C2B00D1FEE7FEE780B586B000AF224B7B61224B68
:400580003B61204B7B6135E03B691B68FB603B695B68BB603B699B683B6000237B600CE0FB681A68BB681A60BB680433BB60FB680433FB607B6804337B607A683B689A42D1
:4005C000EED13B69DB683B6000237B6008E0BB6800221A60BB680433BB607B6804337B607A683B689A42F2D13B6910333B617B69013B7B617B69002BC6D100F0D7FEFFF7A7
:4006000051FEFEE7010000002016000080B582B000AF00237B600FE07B68032B04D8104B7A689200D35800E00E4B0F4A796889008B507B6801337B607B682F2BECD9FFF7A4
:4006400031FD0A4B00221A608023DB058022D205126801210A431A60C046BD4602B080BD000000006105000000000020C000002080B584B000AF0200FB1D1A700F4B1B6805
:40068000DAB20F23FB1840218A431A70FB1D1B789B01DBB240221340D9B20F23FB180F22BA1812780A431A70044B0F22BA1812781A60C046BD4604B080BDC0460001044059
:4006C00080B584B000AF0200FB1D1A700F4B1B68DAB20F23FB1804218A431A70FB1D1B789B00DBB204221340D9B20F23FB180F22BA1812780A431A70044B0F22BA181278B8
:400700001A60C046BD4604B080BDC0460000044080B584B000AF0200FB1D1A700F4B1B68DAB20F23FB1808218A431A70FB1D1B78DB00DBB208221340D9B20F23FB180F2280
:40074000BA1812780A431A70044B0F22BA1812781A60C046BD4604B080BDC0460000044080B500AF00F060F8C046BD4680BDC04680B500AF064B064A1268802109060A4338
:400780001A6000F019F800F01FF8C046BD4680BD0000064080B500AF064B1B78002B04D1FFF7DEFF034B01221A70FFF7E1FFC046BD4680BD8801002080B500AF0A2000F0D2
:4007C000EBFAC046BD4680BD80B500AFC046BD4680BDC04680B500AF0F4B1A6880235B00134012D00D4B1A688023DB0113400CD1094B094A12680A490A401A60064B064A49
:400800001268802149000A431A60064B02221A60C046BD4680BDC0460000064060000640FFFEFFFF6C00064080B500AF254B254A12680C210A431A60234B00221A60234B10
:40084000234A1A60234B244A1A60244B00221A60234B244A1A60244B1F4A1A60234B00221A600A2000F0AEFA03210A2000F040FA1F4B19000A2000F015FA1E4B00221A6093
:400880001D4B00221A601D4B4C22FF321A601C4B00221A601B4B00221A601B4B00221A601A4B10221A701A4B00221A70194B00221A60194B00221A60184B00221A70C04665
:4008C000BD4680BD70000640000006406000064077080040000306400701008004030640100306401000FE000002064004020640750E0000C80E0640880E0640480F064026
:40090000080F0640C80F0640880F0640B0010020C8010020B4010020B8010020D401002080B500AF024B1B78DBB21800BD4680BDC801002080B582B000AF0A2000F042FA05
:400940000B4B1B78DBB21A000F2313407B60084B1B78DBB20D229343DAB2054B1A700A2000F01AFA7B681800BD4602B080BDC046C801002080B582B000AF0A2000F022FA53
:400980000B4B1B78DBB21A00F02313407B60084B1B78DBB22F221340DAB2054B1A700A2000F0FAF97B681800BD4602B080BDC046C801002080B584B000AF78600A4B1B6838
:4009C000FB60FB68FF229343FB607B685B00FF221340FA681343FB60034BFA681A60C046BD4604B080BDC0461003064080B582B000AF786039607B68002B11D00A2000F00F
:400A0000E1F9094B7A681A60084B3A681A60084B00221A60074B00221A600A2000F0BCF9C046BD4602B080BDC4010020C0010020B4010020CC01002080B582B000AF7860A3
:400A400039607B68002B0ED00A2000F0BBF9084B7A681A60074B3A681A60074B00221A600A2000F099F9C046BD4602B080BDC046D0010020BC010020B801002080B500AFE3
:400A8000024B1B681800BD4680BDC046B801002080B500AF024B00221A60C046BD4680BDB401002080B500AF024B00221A60C046BD4680BDB801002090B585B000AF78605A
:400AC0000C23FC1800F0CEF9030023707B68022B00D8B3E07B68302B00D9AFE05E4B1B78DBB21A007B689A420AD35C4A0F23FB1812781A705A4A0E23FB1812781A703FE0AC
:400B0000584B1B78DBB21A007B689A420AD3564A0F23FB1812781A70544A0E23FB1812781A702DE0524B1B78DBB21A007B689A420AD3504A0F23FB1812781A704E4A0E2311
:400B4000FB1812781A701BE04C4B1B78DBB21A007B689A420AD34A4A0F23FB1812781A70484A0E23FB1812781A7009E0464A0F23FB1812781A70454A0E23FB1812781A7056
:400B80007B68DA1E0B23FB1841498A5C1A700B23FB181B782F2B0DD97B682A2B0AD93D4B19221A60052000F053F90D23FB1819221A7007E0374B1B68DAB20D23FB183F212F
:400BC0000A401A700B23FA180D23FB1812781B789A4208D22F4B7A68033A2D498A5C1A60052000F035F97B68284A9A180A23FB1812781A70284B0A22BA1812781A60274BD7
:400C00000F22BA1812781A60254B0E22BA1812781A60052000F0F8F80B23FA180D23FB1812781B789A420CD91A4B7A68033A18498A5C1A60052000F00BF902E0002000F081
:400C4000D7F80C23FB181B78180000F00FF9C046BD4605B090BDC046C0F1FF0FC1F1FF0FC2F1FF0FC3F1FF0FC4F1FF0FC5F1FF0FC6F1FF0FC7F1FF0FC8F1FF0FC9F1FF0F0C
:400C8000CAF1FF0FCBF1FF0FCCF1FF0FCDF1FF0FCC1500002CFF0B4028FF0B401CFF0B4020FF0B4080B584B000AF02003960FB1D1A7080239B05FB60FB1D1B781F2B02D9AE
:400CC000002000F095F8FB1D1B7810339B00FA68D3181B68BB60FB1D1B7810339B00FA68D3183A681A60BB681800BD4604B080BD90B587B000AF0200FB1D1A70BB1D0A1CF5
:400D00001A70BB1D1B78032B02D9002000F070F8FB1D1B781F2B02D9002000F069F8FB1D1B7803221340DB0006337B611323FC1800F098F803002370FB1D1B789B08DBB2AE
:400D40009B00144A944663441B68FB6003227B699A401300DA43FB681340FB60BB1D1A787B699A401300FA681343FB60FB1D1B789B08DBB29B00074A94466344FA681A6085
:400D80001323FB181B78180000F070F8C046BD4607B090BD00E400E080B582B000AF0200FB1D1A70064BFA1D12781F210A40012191400A001A60C046BD4602B080BDC0466B
:400DC00000E100E080B582B000AF0200FB1D1A70064BFA1D12781F210A40012191400A001A60C046BD4602B080BDC04680E100E080B582B000AF0200FB1D1A7001BEC046C7
:400E0000BD4602B080BDC04680B582B000AF0200BB1D1A80BB1D1B88044A12785343180000F016F8C046BD4602B080BDF400002080B500AF044B1B6880221340DB09DBB209
:400E40001800BD4680BDC04604000440000000000230800804D0C0460138FDD1C046C046C0467047EFF3108072B6704780F310887047C04680B582B000AF00233B60DA4B56
:400E80001B68002B02D0D84B1B689847D74B1B680122134002D0D64B00221A60D54B1B78DBB220221340DBB2002B32D1D24B1A680223FF3313402CD0CE4B1B78DBB2012252
:400EC0001340DBB2002B10D0CC4B1B78DBB202229343DAB2C94B1A70C84B1B78DBB209221343DAB2C54B1A7010E0C44B1B78DBB220229343DAB2C14B1A70C04B1B78DBB24E
:400F0000702252421343DAB2BC4B1A70B94B00221A70B84B1B78DBB220221340DBB2002B00D00AE2B34B1B78DBB210221340DBB2002B00D1D3E1B04B1B680222134056D041
:400F4000AF4B02221A60AF4B1B680F221A40AD4B196880231B020B4001D0012300E00023D3187B60A84B1B78DBB21A007B689A4208D9A24B1B78DBB204221343DAB29F4BC3
:400F80001A700AE0A04B1B78DBB21A007B689A1A9E4B1B689A1A9D4B1A609C4B1A689C4B1A609C4B00221A60974B00221A709A4B994A1268802149020A431A60964B964AEE
:400FC000126896490A401A608C4B1B78DBB202229343DAB2894B1A70884B1B78DBB201221343DAB2854B1A70824B10221A70824B1B680822134048D0814B08221A60884BF6
:401000001A6880239B01134019D00DE0854B1A68854B1B68D218854B1B68DBB21370824B1B685A1C804B1A60814B1B680F221340ECD17B4B7A4A12687E490A401A607E4BE1
:401040001B682022134007D06C4B1B78DBB240221343DAB2694B1A70784B00221A60764B774A1A60654B1B78DBB220229343DAB2624B1A70614B1B78DBB210221343DAB242
:401080005E4B1A705B4B10221A705B4B1B68402213404DD06B4B01221A606B4B1B681022134012D05B4B10221A60594B1A68574B1A60524B1B78DBB202221343DAB24F4BBC
:4010C0001A704C4B12221A702CE0604B1A68564B1B68D31A7B607B68072B03D8574B04221A6014E07B68082B07D14D4B4C4A1268A02109020A431A6009E0494B484A126814
:40110000802189010A431A604C4B08221A603B4B1B78DBB220221343DAB2384B1A70354B11221A70364B4A4A1A604A4B01221A60494B1B680822134036D0444B1A683A4B7D
:401140001B68D31A083B7B607B68082B04D908237B6000233B6013E001233B6010E0314B1A68314B1B68D218304B1B68DBB213702D4B1B685A1C2C4B1A607B68013B7B6037
:401180007B68002BEBD13B68002B09D0244B244A1268802109020A431A60284B00221A60254B08221A6066E02B4B1B680422134061D01E4B1B687B601B4B1A68234B1B6848
:4011C0009A424BD2234B01221A60164B1A68164B1B68D3187A68D2B21A70134B1B685A1C114B1A6044E0C0468C0100208C0E0640880E0640B00100204C0F0640C80100202E
:40120000400F064008020640D4010020CC010020B4010020880F064004020640FFFFFEFF60000640D0010020B80100204003064008030640FF5FFFFFC00F0640C80F064016
:40124000ED0F0000800E064064000640BC010020FF0F00006C000640CC0F0640FFF7BAFA384B1B78DBB240221343DAB2354B1A70354B04221A60354B1B68102213405CD0C7
:4012800023E0334B1A68334B1B689A420ED2324A324B19682E4B1B68CB181B78DBB213602B4B1B685A1C2A4B1A600EE02A4BFF221A602B4B1B78DBB20A2B06D8284B1B7877
:4012C000DBB20133DAB2264B1A70264B1B680F221340082BD5D1244B10221A602DE0234B224A1268520052081A60214B10221A70204B204A126820490A401A601D4B1D4A40
:4013000012681E490A401A601D4B00221A601D4B00221A60144B1C4A1A600B4B1B4A1A601B4B1C4A1A601C4B1C4A1A600F4B0F4A1268802109060A431A60C046BD4602B0A0
:4013400080BDC046C8010020C00F06408C0F0640CC010020C001002040020640C4010020D401002008020640800F064000000640B001002060000640FF5FFFFFFFFCFFFFE4
:40138000C80F0640880F0640ED0F0000F3070000400F0640FF0F0000000F064017030000014B18687047C046600100200E4B70B500251E000D4CE41AA410A54204D0AB00EF
:4013C000F35898470135F8E700F018F9084B00251E00084CE41AA410A54204D0AB00F35898470135F8E770BD0816000008160000081600001016000003008218934202D07B
:4014000019700133FAE77047000000007C040000F003000004040000180400002C04000040040000540400006804000000300F40000400400F40000404000F4064300F403C
:4014400043310F4003330F4008400F4003410F4002600F40011811182114310C006D0212030804A40504065307900B570E89120C15021649172019A01A491B5F1C0C21576E
:4014800022492308240226102D0130073330343835C036C0370F38203A803B28401245C046E047B0482A49FF4AFF4BFF580459045A045B045F0162C0644065018006810195
:4014C00082388308861088028B108C018F19910392019408962699049C019F10A002A204A308A401A706A801AC04B00EB220B307B418B508B601B710B908BE40BF50C025AD
:40150000C520C622C751C83EC9FFCAFFCBFFCDA0D804D904DA04DB04DF01E040E140E2C0E4C0E6C001820320040405020608070108400A400B550E820F2010A0150216011B
:40154000171419821B301C241D841E802001220423142620272229822D012F20320433203542372038013A103B043C203E403F01400547204B014C804F8051215619574068
:40158000584059106134634069016A406E026F15702071408620C0FDC2BFC4FCCAC9CCB6CEB7D02CD210D60CD803AB02B580EA10660869026F088501D880DA80DC20E6404A
:4015C000AB08B608EE80010110010000030405060708090A0B0C0E0F101112131415161718191B1C1D1E1F2021222325262728292A2B2E2F3031323334354300F8B5C04613
:40160000F8BC08BC9E4670476D0200000D060000F8B5C046F8BC08BC9E4670474502000030160000C8000020A0000000700000000000000001FF17000000000000000000B3
:40164000000000000000000000000000000000000000000000366E01C05D0000180000000000E02E0100000000000000000000000000000000000000000000000000000081
:401680000000000000000000FA150000000000000000000000000000000000000000000000000000000000000000000000000000000000000000000000000000000000001B
:4016C00000000000000000000001002000000000000000000000000000000000000000000000000000000000000000000000000000000000000000000000000000000000C9
:4017000000000000000000000000000000000000000000000000000000000000000000000000000000000000000000000000000000000000000000000000000000000000A9
:401740000000000000000000000000000000000000000000000000000000000000000000000000000000000000000000000000000000000000000000000000000000000069
:401780000000000000000000000000000000000000000000000000000000000000000000000000000000000000000000000000000000000000000000000000000000000029
:4017C00000000000000000000000000000000000000000000000000000000000000000000000000000000000000000000000000000000000000000000000000000000000E9
:0200000490303A
:0200000039388D
:0200000490402A
:200000000000000000000000000000000000000000000000000000000000000000000000E0
:0200000490501A
:0C000000000204C81193110104CF4ACB88
:0200000490600A
:0100000001FE
:00000001FF