:4000000000100020110000009D0500009D05000080B500AF00F0CCFA80B500AF154B154A12688021C9020A431A60182000F046FD104B104A126810490A401A600F4B104AE6
:400040001A60104B20221A600F4B10221A600F4B802212061A60074B00221A600C4B0D4A1A600D4B0D4A1A600D4B00221A60C046BD4680BD00010B40FFFFFBFF04010B404E
:4000800006000080080202403002024008010B400000024001000080400002400E0000800C020B4080B582B000AF72B6434B01221A70FB1D00221A7022E0FB1D1A7813007E
:4000C0005B009B185B003E4A9B183B603B681A78597809020A43997809040A43DB781B06134318003B681A795B791B0213439BB2190000F0FBF9FB1D1A78FB1D01321A70D0
:40010000FB1D1B78012BD8D92E4A2F4B1100180000F0FCF92D4BC02292021A602C4BEE2212021A602B4BEE221A602B4B992212041A602A4BC02292041A60294B992212044D
:400140001A60284B992212041A60274B05221A60264B06221A60264A254B1B78DBB23C218B43DBB214210B43DBB21370214A214B1B78DBB216210B43DBB213701E4B9C2223
:400180001A601E4B1E4A1A601E4B40221A601E4BC02252031A601D4BD82212011A601C4B03221A601B4B24221A60FFF735FF00F0EFF9C046BD4602B080BDC0461C700F4025
:4001C000AC1A0000D41A0000B81A0000000001400C0001401000014000500F4008500F4010500F4030500F402000004000800F4001700F4000700F40000004400800044098
:40020000806D4000000104400801044008030440000404400804044010B5064C2378002B07D1054B002B02D0044800E000BF0123237010BD4801002000000000881A00009C
:40024000084B10B5002B03D00749084800E000BF07480368002B00D110BD064B002BFBD09847F9E7000000004C010020881A0000C80000200000000090B583B000AF00F092
:40028000FFFD012000F0E4FFBB1DFF221A70012000F00CFA012000F031FA012000F056FA284B0321180000F0A3FB274B0321180000F0C4FB00F08CFA62B6FB1D00221A702B
:4002C000FC1D01F0F5F803002370FB1D1B78002B03D1FB1D64221A7002E0FB1D63221A7000F03CFB0200102313401FD000F0C8FB0300032B0FD1144B1B78012B0BD1124BDD
:400300009B78172B07D1104B5B78BC1D180000F01DF80300237000F0C7FB00F049FB094BFA1D12785A70BB1DFF221A7000F016FB020001231340C3D000F0ACFB00F018FB07
:40034000BEE7C046CC0000208C01002080B584B000AF78600F23FB1800221A707B68072B00D991E07B689A004D4BD3181B689F46002000F09BF9012000F0C0F9012000F012
:40038000E5F9482000F036FE03001900002000F089F87EE0012000F089F9002000F0AEF9012000F0D3F95E2000F024FE03001900002000F077F86CE0012000F077F9012088
:4003C00000F09CF9002000F0C1F91B2000F012FE03001900002000F065F85AE0002000F065F9002000F08AF9012000F0AFF9012000F000FE03001900002000F053F848E048
:40040000002000F053F9012000F078F9002000F09DF95C2000F0EEFD03001900002000F041F836E0012000F041F9002000F066F9002000F08BF9592000F0DCFD03001900BA
:40044000002000F02FF824E0002000F02FF9002000F054F9002000F079F95F2000F0CAFD03001900002000F01DF812E0012000F01DF9012000F042F9012000F067F90021BC
:40048000002000F00FF804E00F23FB18FF221A70C0460F23FB181B781800BD4604B080BD8C1A000080B584B000AF786039600023FB6008E0FB683A687968180000F09AFE4C
:4004C000FB680133FB60FB680E2BF3D9C04600F07DFD031EFBD0012000F020FD0A2000F095FCC046BD4604B080BDC04680B582B000AF786039603A687B680021180001F037
:40050000BBFAC046BD4602B080BDC04680B586B000AF7860396000233B6100237B612FE07B699B007A68D3181B68BB600F23FB18BA681A70BB68FF229343BB6018E03B6904
:400540005B003A68D3181B781A00BB68D31819003B695B003A68D3185B780B703B6901333B610F23FB181A780F23FB18013A1A700F23FB181B78002BE1D17B6901337B61E7
:400580007B69062BCCD9C046BD4606B080BDC04680B500AFC046BD4680BDC04680B500AF01F03EFA03001B680C2B00D1FEE7FEE780B586B000AF224B7B61224B3B61204B13
:4005C0007B6135E03B691B68FB603B695B68BB603B699B683B6000237B600CE0FB681A68BB681A60BB680433BB60FB680433FB607B6804337B607A683B689A42EED13B6935
:40060000DB683B6000237B6008E0BB6800221A60BB680433BB607B6804337B607A683B689A42F2D13B6910333B617B69013B7B617B69002BC6D101F0F9F9FFF71DFEFEE7AB
:40064000010000006421000080B582B000AF00237B600FE07B68032B04D8104B7A689200D35800E00E4B0F4A796889008B507B6801337B607B682F2BECD9FFF713FD0A4BE4
:4006800000221A608023DB058022D205126801210A431A60C046BD4602B080BD000000009D05000000000020C000002080B584B000AF0200FB1D1A700F4B1B68DAB20F234E
:4006C000FB1840218A431A70FB1D1B789B01DBB240221340D9B20F23FB180F22BA1812780A431A70044B0F22BA1812781A60C046BD4604B080BDC0460001044080B584B06E
:4007000000AF0200FB1D1A700F4B1B68DAB20F23FB1804218A431A70FB1D1B789B00DBB204221340D9B20F23FB180F22BA1812780A431A70044B0F22BA1812781A60C04660
:40074000BD4604B080BDC0460000044080B584B000AF0200FB1D1A700F4B1B68DAB20F23FB1808218A431A70FB1D1B78DB00DBB208221340D9B20F23FB180F22BA18127864
:400780000A431A70044B0F22BA1812781A60C046BD4604B080BDC0460000044080B500AF00F060F8C046BD4680BDC04680B500AF064B064A1268802109060A431A6000F0EA
:4007C00019F800F01FF8C046BD4680BD0000064080B500AF064B1B78002B04D1FFF7DEFF034B01221A70FFF7E1FFC046BD4680BD6401002080B500AF0A2000F0CFFAC04651
:40080000BD4680BD80B500AFC046BD4680BDC04680B500AF0F4B1A6880235B00134012D00D4B1A688023DB0113400CD1094B094A12680A490A401A60064B064A12688021D8
:4008400049000A431A60064B02221A60C046BD4680BDC0460000064060000640FFFEFFFF6C00064080B500AF254B254A12680C210A431A60234B00221A60234B234A1A6004
:40088000234B244A1A60244B00221A60234B244A1A60244B1F4A1A60234B00221A600A2000F092FA03210A2000F024FA1F4B19000A2000F0F9F91E4B00221A601D4B002205
:4008C0001A601D4B4C22FF321A601C4B00221A601B4B00221A601B4B00221A601A4B10221A701A4B00221A70194B00221A60194B00221A60184B00221A70C046BD4680BD6F
:4009000070000640000006406000064077080040000306400701008004030640100306401000FE000002064004020640F5140000C80E0640880E0640480F0640080F064042
:40094000C80F0640880F06408F010020A40100209001002094010020B001002080B500AF024B1B78DBB21800BD4680BDA401002080B582B000AF0A2000F026FA0B4B1B782A
:40098000DBB21A000F2313407B60084B1B78DBB20D229343DAB2054B1A700A2000F0FEF97B681800BD4602B080BDC046A401002080B582B000AF0A2000F006FA0B4B1B7870
:4009C000DBB21A00F02313407B60084B1B78DBB22F221340DAB2054B1A700A2000F0DEF97B681800BD4602B080BDC046A401002080B582B000AF786039607B68002B11D073
:400A00000A2000F0E1F9094B7A681A60084B3A681A60084B00221A60074B00221A600A2000F0BCF9C046BD4602B080BDA00100209C01002090010020A801002080B582B0A0
:400A400000AF786039607B68002B0ED00A2000F0BBF9084B7A681A60074B3A681A60074B00221A600A2000F099F9C046BD4602B080BDC046AC0100209801002094010020AC
:400A800080B500AF024B1B681800BD4680BDC0469401002080B500AF024B00221A60C046BD4680BD9001002080B500AF024B00221A60C046BD4680BD9401002090B585B069
:400AC00000AF78600C23FC1800F00CFD030023707B68022B00D8B3E07B68302B00D9AFE05E4B1B78DBB21A007B689A420AD35C4A0F23FB1812781A705A4A0E23FB1812788C
:400B00001A703FE0584B1B78DBB21A007B689A420AD3564A0F23FB1812781A70544A0E23FB1812781A702DE0524B1B78DBB21A007B689A420AD3504A0F23FB1812781A7031
:400B40004E4A0E23FB1812781A701BE04C4B1B78DBB21A007B689A420AD34A4A0F23FB1812781A70484A0E23FB1812781A7009E0464A0F23FB1812781A70454A0E23FB18A1
:400B800012781A707B68DA1E0B23FB1841498A5C1A700B23FB181B782F2B0DD97B682A2B0AD93D4B19221A60052000F091FC0D23FB1819221A7007E0374B1B68DAB20D234D
:400BC000FB183F210A401A700B23FA180D23FB1812781B789A4208D22F4B7A68033A2D498A5C1A60052000F073FC7B68284A9A180A23FB1812781A70284B0A22BA1812780F
:400C00001A60274B0F22BA1812781A60254B0E22BA1812781A60052000F01EF90B23FA180D23FB1812781B789A420CD91A4B7A68033A18498A5C1A60052000F049FC02E03D
:400C4000002000F0D7F80C23FB181B78180000F04DFCC046BD4605B090BDC046C0F1FF0FC1F1FF0FC2F1FF0FC3F1FF0FC4F1FF0FC5F1FF0FC6F1FF0FC7F1FF0FC8F1FF0F83
:400C8000C9F1FF0FCAF1FF0FCBF1FF0FCCF1FF0FCDF1FF0F4C1C00002CFF0B4028FF0B401CFF0B4020FF0B4080B584B000AF02003960FB1D1A7080239B05FB60FB1D1B7884
:400CC0001F2B02D9002000F095F8FB1D1B7810339B00FA68D3181B68BB60FB1D1B7810339B00FA68D3183A681A60BB681800BD4604B080BD90B587B000AF0200FB1D1A70CE
:400D0000BB1D0A1C1A70BB1D1B78032B02D9002000F070F8FB1D1B781F2B02D9002000F069F8FB1D1B7803221340DB0006337B611323FC1800F0D6FB03002370FB1D1B789F
:400D40009B08DBB29B00144A944663441B68FB6003227B699A401300DA43FB681340FB60BB1D1A787B699A401300FA681343FB60FB1D1B789B08DBB29B00074A9446634431
:400D8000FA681A601323FB181B78180000F0AEFBC046BD4607B090BD00E400E080B582B000AF0200FB1D1A70064BFA1D12781F210A40012191400A001A60C046BD4602B091
:400DC00080BDC04600E100E080B582B000AF0200FB1D1A70064BFA1D12781F210A40012191400A001A60C046BD4602B080BDC04680E100E080B582B000AF0200FB1D1A7049
:400E000001BEC046BD4602B080BDC04680B582B000AF786009E00D4B1B68180000F058FB7B680B4A944663447B607A6880231B029A42F0D8074B1B687A685343180000F0B9
:400E400047FBC046BD4602B080BDC046DC0000200080FFFFD400002080B582B000AF0200BB1D1A80BB1D1B88044A12785343180000F02EFBC046BD4602B080BDD800002030
:400E800080B500AF1C4B03221A701C4B0E221A701B4B0C221A701B4B07221A701A4B01221A70182000F0A6F80300180000F07AF9154B00221A70002000F00EFA002000F056
:400EC000C7F9124B1B78002B10D1104B01221A700F4B180000F030FA0E4B180000F08AFA012000F04BFA002000F0A6FA0A4B01221A60C046BD4680BD91000F4041000F400F
:400F000021000F4031000F4070000F4074010020D1100000151000007002002080B584B000AF78607B68002B05D01E4B00221A601D4B00221A701B4B1A681C4BB4214A4338
:400F4000D358FB601A4B1B68FA68DA40194B1B681340FB601849FB68FF221340174AD35C0B70FB681B0AFB601349FB68FF221340124AD35C0B70FB681B0AFB600E49FB68F6
:400F8000FF2213400D4AD35C0B700D4B01221A600C4B19221A700C4B00221A60C046BD4604B080BD7C01002071000F40B40100206C0200206802002040000F407C1C00004D
:400FC0007801002070000F407002002080B500AF064B1B68002B04D0054B00221A70012300E000231800BD4680BDC0467002002070000F4080B582B000AF7860044B7A685F
:401000009200D3587B607B681800BD4602B080BD7C1D000080B500AF244B1A68244B1868244913005B009B181A01D21A13189B005A58214B1A60204B1A68204B1B68DA40E6
:401040001F4B1B681A401C4B1A601E491A4B1B68FF2213401C4AD35C0B70174B1B681A0A154B1A601749144B1B68FF221340164AD35C0B70104B1B681A0A0F4B1A601149A2
:401080000D4B1B68FF2213400F4AD35C0B70084B1B685A1C064B1A60054B1B682C2B02D90A4B11221A70C046BD4680BD7C01002078010020B4010020840100206C0200202C
:4010C0006802002040000F407C1C000070000F4080B500AF284B21221A70284B1B685A1C264B1A60254B1B68002B3FD1244A234B1B68DBB21370214B1A68224BB4214A43AB
:40110000D258214B1A60204B1A68204B1B68DA401F4B1B681A401C4B1A601E491A4B1B68FF2213401C4AD35C0B70174B1B681A0A154B1A601749144B1B68FF221340164AB6
:40114000D35C0B70104B1B681A0A0F4B1A6011490D4B1B68FF2213400F4AD35C0B700F4B01221A60044B19221A7002E00C4B01221A60C046BD4680BD70000F407C010020C0
:4011800071000F40B4010020880100206C0200206802002040000F407C1C0000780100207002002080B584B000AF78600023FB6017E00023BB600EE00D49FA6813005B00D0
:4011C0009B181A01D21ABB68D3189B007A685A50BB680133BB60BB682C2BEDD9FB680133FB60FB68002BE4D0C046BD4604B080BDB401002080B584B000AFF860B9607A60E8
:40120000FB68002B1DDBBB68002B1ADBFB680E2B17DCBB68012B14DCBA6813001B019B1AFA68D318FB600023BB600849BA6813005B009B181A01D21AFB68D3189B007A68C5
:401240005A50C046BD4604B080BDC046B401002080B582B000AF78607B68022B0FD002D8012B05D020E0032B10D0042B15D01BE0134B144A1A60144B01221A601CE0104B91
:40128000124A1A60104B02221A6015E00C4B104A1A600D4B03221A600EE0094B0D4A1A60094B04221A6007E0054B012252421A60054B00221A60C046C046BD4602B080BDEF
:4012C000680200207F7F7F7F6C0200203F3F3F3F1F1F1F1F0F0F0F0F80B582B000AF78607B68002B0CD10F4B0F4A1A600F4B05221A600F4B07221A600E4B20221A600CE027
:40130000084B094A1A60094B05221A60084B07221A60084B20221A60C046C046BD4602B080BDC0467C0200205C1F000074020020800200207802002080B582B000AF7860B6
:4013400000F04EF87B68180000F00AF8032000F015F800F03BF8C046BD4602B080BDC04680B582B000AF7860034B7A681A64C046BD4602B080BDC0460000002090B585B0D5
:4013800000AF0200FB1D1A700623FB600B23FC1800F0A8F8030023700B4B0B4A1268C0218A431100FA1D1078FA68904002000A431A600B23FB181B78180000F097F8C046FF
:4013C000BD4605B090BDC04600E400E080B500AF024B01221A60C046BD4680BD00E100E080B500AF024B01221A60C046BD4680BD80E100E080B582B000AF786000F04EF8D0
:401400007B68180000F00AF8032000F015F800F03BF8C046BD4602B080BDC04680B582B000AF7860034B7A689A64C046BD4602B080BDC0460000002090B585B000AF020019
:40144000FB1D1A701623FB600B23FC1800F04AF8030023700A4B0A4A12680A491140FA1D1078FA68904002000A431A600B23FB181B78180000F03AF8C046BD4605B090BDB2
:4014800000E400E0FFFF3FFF80B500AF024B04221A60C046BD4680BD00E100E080B500AF024B04221A60C046BD4680BD80E100E080B500AF044B1B6880221340DB09DBB2E0
:4014C0001800BD4680BDC04604000440000000000230800804D0C0460138FDD1C046C046C0467047EFF3108072B6704780F310887047C04680B582B000AF00233B60DA4BD0
:401500001B68002B02D0D84B1B689847D74B1B680122134002D0D64B00221A60D54B1B78DBB220221340DBB2002B32D1D24B1A680223FF3313402CD0CE4B1B78DBB20122CB
:401540001340DBB2002B10D0CC4B1B78DBB202229343DAB2C94B1A70C84B1B78DBB209221343DAB2C54B1A7010E0C44B1B78DBB220229343DAB2C14B1A70C04B1B78DBB2C7
:40158000702252421343DAB2BC4B1A70B94B00221A70B84B1B78DBB220221340DBB2002B00D00AE2B34B1B78DBB210221340DBB2002B00D1D3E1B04B1B680222134056D0BB
:4015C000AF4B02221A60AF4B1B680F221A40AD4B196880231B020B4001D0012300E00023D3187B60A84B1B78DBB21A007B689A4208D9A24B1B78DBB204221343DAB29F4B3D
:401600001A700AE0A04B1B78DBB21A007B689A1A9E4B1B689A1A9D4B1A609C4B1A689C4B1A609C4B00221A60974B00221A709A4B994A1268802149020A431A60964B964A67
:40164000126896490A401A608C4B1B78DBB202229343DAB2894B1A70884B1B78DBB201221343DAB2854B1A70824B10221A70824B1B680822134048D0814B08221A60884B6F
:401680001A6880239B01134019D00DE0854B1A68854B1B68D218854B1B68DBB21370824B1B685A1C804B1A60814B1B680F221340ECD17B4B7A4A12687E490A401A607E4B5B
:4016C0001B682022134007D06C4B1B78DBB240221343DAB2694B1A70784B00221A60764B774A1A60654B1B78DBB220229343DAB2624B1A70614B1B78DBB210221343DAB2BC
:401700005E4B1A705B4B10221A705B4B1B68402213404DD06B4B01221A606B4B1B681022134012D05B4B10221A60594B1A68574B1A60524B1B78DBB202221343DAB24F4B35
:401740001A704C4B12221A702CE0604B1A68564B1B68D31A7B607B68072B03D8574B04221A6014E07B68082B07D14D4B4C4A1268A02109020A431A6009E0494B484A12688D
:40178000802189010A431A604C4B08221A603B4B1B78DBB220221343DAB2384B1A70354B11221A70364B4A4A1A604A4B01221A60494B1B680822134036D0444B1A683A4BF7
:4017C0001B68D31A083B7B607B68082B04D908237B6000233B6013E001233B6010E0314B1A68314B1B68D218304B1B68DBB213702D4B1B685A1C2C4B1A607B68013B7B60B1
:401800007B68002BEBD13B68002B09D0244B244A1268802109020A431A60284B00221A60254B08221A6066E02B4B1B680422134061D01E4B1B687B601B4B1A68234B1B68C1
:401840009A424BD2234B01221A60164B1A68164B1B68D3187A68D2B21A70134B1B685A1C114B1A6044E0C046680100208C0E0640880E06408F0100204C0F0640A401002010
:40188000400F064008020640B0010020A801002090010020880F064004020640FFFFFEFF60000640AC010020940100204003064008030640FF5FFFFFC00F0640C80F064044
:4018C000ED0F0000800E06406400064098010020FF0F00006C000640CC0F0640FEF798FF384B1B78DBB240221343DAB2354B1A70354B04221A60354B1B68102213405CD083
:4019000023E0334B1A68334B1B689A420ED2324A324B19682E4B1B68CB181B78DBB213602B4B1B685A1C2A4B1A600EE02A4BFF221A602B4B1B78DBB20A2B06D8284B1B78F0
:40194000DBB20133DAB2264B1A70264B1B680F221340082BD5D1244B10221A602DE0234B224A1268520052081A60214B10221A70204B204A126820490A401A601D4B1D4AB9
:4019800012681E490A401A601D4B00221A601D4B00221A60144B1C4A1A600B4B1B4A1A601B4B1C4A1A601C4B1C4A1A600F4B0F4A1268802109060A431A60C046BD4602B01A
:4019C00080BDC046A4010020C00F06408C0F0640A80100209C01002040020640A0010020B001002008020640800F0640000006408F01002060000640FF5FFFFFFFFCFFFF33
:401A0000C80F0640880F0640ED0F0000F3070000400F0640FF0F0000000F064017030000014B18687047C046440100200E4B70B500251E000D4CE41AA410A54204D0AB0084
:401A4000F35898470135F8E700F07AFB084B00251E00084CE41AA410A54204D0AB00F35898470135F8E770BD4C2100004C2100004C2100005421000003008218934202D054
:401A800019700133FAE77047000000006C0400007003000094030000B8030000DC03000000040000240400004804000000300F40000400400F40000404000F4064300F40F9
:401AC00043310F4003330F4008400F4003410F4002600F40011811182114310C006D0212030804A40504065307900B570E89120C15021649172019A01A491B5F1C0C2157E8
:401B000022492308240226102D0130073330343835C036C0370F38203A803B28401245C046E047B0482A49FF4AFF4BFF580459045A045B045F0162C064406501800681010E
:401B400082388308861088028B108C018F19910392019408962699049C019F10A002A204A308A401A706A801AC04B00EB220B307B418B508B601B710B908BE40BF50C02526
:401B8000C520C622C751C83EC9FFCAFFCBFFCDA0D804D904DA04DB04DF01E040E140E2C0E4C0E6C001820320040405020608070108400A400B550E820F2010A01502160195
:401BC000171419821B301C241D841E802001220423142620272229822D012F20320433203542372038013A103B043C203E403F01400547204B014C804F80512156195740E2
:401C0000584059106134634069016A406E026F15702071408620C0FDC2BFC4FCCAC9CCB6CEB7D02CD210D60CD803AB02B580EA10660869026F088501D880DA80DC20E640C3
:401C4000AB08B608EE80010110010000030405060708090A0B0C0E0F101112131415161718191B1C1D1E1F2021222325262728292A2B2E2F30313233343500000000000082
:401C800000000000000000000000000000000000000000000000000001010101010101010101010101020202020202020203030303030303040404040405050505060606B8
:401CC00006070707070808080909090A0A0A0B0B0B0C0C0D0D0D0E0E0F0F101011111212131314141515161617181819191A1B1B1C1D1D1E1F2020212223232425262727EB
:401D000028292A2B2C2D2E2F303132323334363738393A3B3C3D3E3F40424344454648494A4B4D4E4F515253555657595A5C5D5F606263656668696B6D6E707273757778AB
:401D40007A7C7E7F81838587898A8C8E90929496989A9C9EA0A2A4A7A9ABADAFB1B4B6B8BABDBFC1C4C6C8CBCDD0D2D5D7DADCDFE1E4E7E9ECEFF1F4F7F9FCFFFFFF000069
:401D8000FFCC0000FF990000FF330000FF000000B3006600990099006600B3003300CC001919B3000033990000409900006699000099990000CC990000E6660000FF0000C1
:401DC00033FF000066FF000080FF000099FF0000B2FF0000CCFF0000E5FF000000000000000055000000AA000000FF0055000000550055005500AA005500FF00AA000000DB
:401E0000AA005500AA00AA00AA00FF00FF000000FF005500FF00AA00FF00FF0000550000005555000055AA000055FF0055550000555555005555AA005555FF00AA550000B5
:401E4000AA555500AA55AA00AA55FF00FF550000FF555500FF55AA00FF55FF0000AA000000AA550000AAAA0000AAFF0055AA000055AA550055AAAA0055AAFF00AAAA000025
:401E8000AAAA5500AAAAAA00AAAAFF00FFAA0000FFAA5500FFAAAA00FFAAFF0000FF000000FF550000FFAA0000FFFF0055FF000055FF550055FFAA0055FFFF00AAFF000095
:401EC000AAFF5500AAFFAA00AAFFFF00FFFF0000FFFF5500FFFFAA00FFFFFF00FF800000FF008000FF00FF008000FF000080FF0000FF8000FF0000002020200000002000FB
:401F00000000001000FF000030FF0000FFFFFFFF000000FF808080FF404040FF0000FF000010F0000020E0000030D0000040C0000050B0000060A00000709000008080002B
:401F40000090700000A0600000B0500000C0400000D0300000E0200000FF0000000000000000005F00000007000700147F147F14242A7F2A12231308646236495522500068
:401F800005030000001C2241000041221C00082A1C2A0808083E080800503000000808080808006060000020100804023E5149453E00427F400042615149462141454B3195
:401FC0001814127F1027454545393C4A49493001710905033649494936064949291E0036360000005636000000081422411414141414412214080002015109063249794102
:402000003E7E1111117E7F494949363E414141227F4141221C7F494949417F090901013E414151327F0808087F00417F41002040413F017F081422417F404040407F0204D6
:40204000027F7F0408107F3E4141413E7F090909063E4151215E7F09192946464949493101017F01013F4040403F1F2040201F7F2018207F63140814630304780403615132
:4020800049454300007F4141020408102041417F000004020102044040404040000102040020545454787F484444383844444420384444487F3854545418087E090102080F
:4020C0001454543C7F0804047800447D40002040443D00007F10284400417F40007C041804787C0804047838444444387C14141408081414187C7C08040408485454542034
:40210000043F4440203C4040207C1C2040201C3C4030403C44281028440C5050503C4464544C44000836410000007F0000004136080008082A1C08081C2A08084300000058
:40214000F8B5C046F8BC08BC9E4670474102000049060000F8B5C046F8BC08BC9E4670471902000078210000C80000208000000040010000000000000000000001FF1700CD
:4021800000366E01C05D0000180000000000E02E0100000000000000000000000000000000000000000000000000000000000000000000003C2100000000000000000000D9
:4021C00000000000000000000000000000000000000000000000000000000000000000000000000000000000000000000000000000000000E40000200000000000000000DB
:40220000000000000000000000000000000000000000000000000000000000000000000000000000000000000000000000000000000000000000000000000000000000009E
:40224000000000000000000000000000000000000000000000000000000000000000000000000000000000000000000000000000000000000000000000000000000000005E
:40228000000000000000000000000000000000000000000000000000000000000000000000000000000000000000000000000000000000000000000000000000000000001E
:4022C00000000000000000000000000000000000000000000000000000000000000000000000000000000000000000000000000000000000000000000000000000000000DE
:0200000490303A
:02000000A11548
:0200000490402A
:200000000000000000000000000000000000000000000000000000000000000000000000E0
:0200000490501A
:0C000000000204C81193110104D2B2A840
:0200000490600A
:0100000001FE
:00000001FF